:100000006F10706813000000130000001300000060
:100010001300000013000000130000001300000094
:100020001300000013000000130000001300000084
:08003000130000007300100032
:100038000000000000000000AE1C0000BE1C000014
:1000480000000000CC1D00000000000000000000BF
:10005800CE1D0000D01D00000000000000000000C0
:10006800D21D000000000000D41D000000000000A8
:10007800D61D0000D81D0000DA1D0000DC1D0000A0
:10008800DE1D0000E01D00002C19000050190000C2
:100098007419000098190000BC190000EC1D00003C
:1000A800EE1D0000F01D0000F21D0000F41D000010
:1000B800F61D0000F81D0000FA1D0000FC1D0000E0
:1000C800FE1D0000001E0000021E0000E0190000D6
:1000D800061E0000E61A00000A1E00000C1E0000A2
:1000E800161B00003E1B00006E1B0000141E0000C3
:1000F800161E0000181E00001A1E00001C1E00001C
:100108001E1E00001017000048170000AA17000064
:10011800681A0000281E00002A1E00002C1E00007D
:10012800261C0000301E0000321E0000341E000095
:10013800361E0000381E00009E1B00003C1E0000FA
:10014800DE17000012180000CE1B0000F61B00008E
:10015800461E0000481E00004A1E00004C1E0000FB
:100168004E1E0000501E0000521E0000541E0000CB
:10017800561E0000581E00005A1E00006E2F000078
:100188005E1E0000601E0000EE180000421800000D
:1001980076180000C21800006A1E0000561C0000F5
:1001A8006E1E0000701E0000721E0000861C0000FB
:1001B800761E0000781E00007A1E00007C1E0000DB
:1001C8007E1E0000801E0000821E0000841E0000AB
:1001D8000000000000000000000000000000000017
:1001E8000000000000000000000000000000000007
:0801F8000000000000000000FF
:10020000737504308280B76200009382820873A005
:10021000023082803D432A876373C3029377F700DD
:10022000BDEFADE5937606FF3D8ABA960CC34CC38D
:100230000CC74CC74107E36BD7FE11E28280B306BF
:10024000C3408A069702000096966780A60023079F
:10025000B700A306B7002306B700A305B700230520
:10026000B700A304B7002304B700A303B700230318
:10027000B700A302B7002302B700A301B700230110
:10028000B700A300B7002300B700828093F5F50FF5
:1002900093968500D58D93960501D58D61B793967C
:1002A00027009702000096968682E78086FA96805D
:1002B000C1171D8F3E96E374C3F8A5B7011122CE76
:1002C00000102324A4FE2326B4FEB7F700E023A0E9
:1002D0000700B7F700E08146014794C7D8C7B7F7D2
:1002E00000E0054798C30100B7F700E003A8C70086
:1002F0009C470327C4FEC286636CD7000327C4FE55
:10030000C286E313D7FE032784FE6363F700E9BFC9
:100310000100724405618280797106D622D40018EA
:10032000232EA4FC232CB4FC232AC4FC2328D4FCB5
:10033000232004FE232204FE232404FE8327C4FD7D
:10034000958393F7F70F9D8BA307F4FE8327C4FDD6
:1003500093F7F70FBD8B2307F4FE0327C4FD930724
:10036000F00F6305F7140327C4FD9307F00F630133
:10037000F7148347F4FE91E785451145EF20804649
:1003800041A00347F4FE85476317F70085452145E3
:10039000EF204045B5A00347F4FE89476317F700F7
:1003A00085454145EF200044A1A80347F4FE8D4751
:1003B0006318F700854513050002EF20A04289A0CD
:1003C0000347F4FE91476318F700854513050004C1
:1003D000EF20404135A00347F4FE95476318F7002E
:1003E000854513050008EF20E03F19A80347F4FEF8
:1003F00099476317F700854513050010EF20803EED
:100400008347E4FE0547B317F700C207C1832310F3
:10041000F4FE032784FD85476317F702832704FD55
:10042000C207C183A183C207C18389E78D47232205
:10043000F4FE11A8832704FDC207C183A183C2076C
:10044000C1832322F4FE832704FDC207C18393F7EF
:10045000F70F2324F4FE0347F4FEA5670A079387EA
:100460000788BA979C433E87930704FEBE853A856A
:10047000EF10D050032784FD8547631CF702034724
:10048000F4FEA5670A0793870788BA979C43BE8640
:100490008347E4FE0547B317F700C207C18303266D
:1004A00044FDBE853685EF10107021A0010011A01B
:1004B0000100B250225445618280011106CE22CC47
:1004C00000102326A4FE2324B4FE8327C4FE99E74C
:1004D000E146014685452545813545AA0327C4FEE9
:1004E00089476319F700E146014685451305600217
:1004F000253561AA0327C4FEC1476318F700E1460A
:10050000014685450945093D49A20327C4FEC9475F
:100510006319F700E1460146854513055006ED3B9A
:10052000ADA20327C4FE930700026319F700E1465A
:10053000014685451305A002C53381AA0327C4FEE1
:10054000930720026319F700E1460146854513052C
:10055000A004D9331DAA0327C4FE930740026319E0
:10056000F700E1460146854513058006753331AA3B
:100570000327C4FE930700046319F700E146014610
:1005800085451305A004493B09A20327C4FE930730
:1005900020046319F700E146014685451305000272
:1005A000A53BE5A00327C4FE930700056319F700E8
:1005B000E146014685451305C004B93BF9A0032770
:1005C000C4FE930720056319F700E14601468545FF
:1005D00013058008913355A80327C4FE930700062E
:1005E0006319F700E14601468545130500042D33E4
:1005F00069A80327C4FE930720066319F700E146A4
:100600000146854513050004013B41A00327C4FEB4
:10061000930700076319F700E14601468545130576
:100620002004DD399DA00327C4FE9307200763182B
:10063000F700E146014685451945F939B9A0032778
:10064000C4FE930740076319F700E146014685455C
:100650001305C008D13115A80327C4FE930700086D
:100660006319F700E14601468545130540046D31E5
:1006700029A80327C4FE930720086318F700E14662
:10068000014685451305E0084139032784FE854767
:100690006319F70093068004014681452945AD3969
:1006A000C9AA032784FE8D47631AF70093068004C6
:1006B0000146814513057002853165AA032784FE32
:1006C000C5476319F70093068004014681450D452F
:1006D000A13145A2032784FECD47631AF700930694
:1006E000800401468145130560063D3159A2032768
:1006F00084FE93071002631AF700930680040146F4
:1007000081451305B0020939ADA2032784FE930782
:100710003002631AF70093068004014681451305F1
:10072000B004DD3EB9A2032784FE93075002631A8A
:10073000F700930680040146814513059006E93EC3
:100740000DAA032784FE93071004631AF70093068B
:100750008004014681451305B0047D3E19AA032794
:1007600084FE93073004631AF70093068004014661
:100770008145130510024D36EDA8032784FE93072B
:100780001005631AF700930680040146814513059E
:1007900020065936F9A8032784FE93073005631A0B
:1007A000F700930680040146814513059008AD3695
:1007B000C9A0032784FE93071006631AF700930667
:1007C00080040146814513051004B9365DA0032756
:1007D00084FE93073006631AF700930680040146EF
:1007E00081451305B0080D3E69A0032784FE9307D9
:1007F0001007631AF700930680040146814513052C
:100800003004193EBDA0032784FE93073007631907
:10081000F70093068004014681451D45F53C91A8EB
:10082000032784FE93075007631AF700930680049A
:10083000014681451305D008C53425A8032784FE49
:1008400093071008631AF700930680040146814558
:1008500013055004D13431A8032784FE93073008D0
:100860006319F70093068004014681451305F008DB
:1008700065340100F240624405618280011122CE9C
:1008800000102326A4FEAE87A305F4FE0100A56791
:100890000327C4FE0A0793874789BA979C4383D7E7
:1008A0000700C207C18393F70708F5D3A56703279D
:1008B000C4FE0A0793874789BA979C433E878347BC
:1008C000B4FEC207C1832312F70001007244056120
:1008D0008280011106CE22CC00102326A4FE232400
:1008E000B4FE2322C4FE29A8832784FE13871700A1
:1008F0002324E4FE83C70700BE850325C4FEBD3F55
:10090000832744FE1387F7FF2322E4FEF1FF010053
:10091000F240624405618280011106CE22CC0010B3
:100920002326A4FE2324B4FE29A8832784FE13874C
:1009300017002324E4FE83C70700BE850325C4FEF9
:10094000353F832784FE83C70700E5F30100F240AB
:10095000624405618280011106CE22CC001023265C
:10096000A4FEAE87A305F4FEA5670327C4FE0A070D
:1009700093874789BA979C433E878347B4FE3E8658
:10098000930550523A85EF20C02113874181832778
:10099000C4FEBA9783C7070081453E85EF00904E9D
:1009A0008347B4FE81CF138741818327C4FEBA9762
:1009B00083C707003E85EF00704919A8138741815E
:1009C0008327C4FEBA9783C707003E85EF00D0494E
:1009D0000100F240624405618280011122CE0010C4
:1009E0002326A4FE2324B4FEA5670327C4FE0A071A
:1009F00093874789BA979C4383D70700C207C1836F
:100A000093F707028DC7A5670327C4FE0A079387DC
:100A10004789BA979C4383D74700C207C18313F71E
:100A2000F70F832784FE2380E700854711A08147C5
:100A30003E85724405618280797106D622D4001801
:100A4000232EA4FC232CB4FC232AC4FC2328D4FC8E
:100A5000232004FE232204FE232404FE232604FE76
:100A600085450545EF101058832504FD032544FDF9
:100A7000A934032744FD8947631CF700032704FDBD
:100A80008D476317F70085451145EF10501595A266
:100A9000032744FDC947631CF700032704FDCD4726
:100AA0006317F70085452145EF10701399A20327BE
:100AB00044FD930720026310F702032704FD930708
:100AC0003002631AF7008545B70714001385070144
:100AD000EF10F01039AA032744FD9307400263107A
:100AE000F702032704FD93075002631AF7008545B8
:100AF000B707140013850703EF10700EDDA8032756
:100B000044FD93072004631DF700032704FD9307AA
:100B100030046317F70085450565EF10500CD1A828
:100B2000032744FD930720056310F702032704FD04
:100B300093073005631AF7008545B7072000138532
:100B40001700EF10D00975A0032744FD9307200676
:100B50006310F702032704FD93073006631AF700BA
:100B60008545B717008013850780EF10500751A007
:100B7000032744FD930720076312F702032704FDB0
:100B800093073007631CF700B7070140D44FB7073E
:100B9000014037074000558FD8CFA1A8032744FD57
:100BA000930740076312F702032704FD93075007DA
:100BB000631CF700B7070140D44FB7070140370760
:100BC0008000558FD8CF35A0032744FD9307200818
:100BD0006311F702032704FD93073008631BF70036
:100BE000B7070140D44FB707014037070002558FC0
:100BF000D8CF8327C4FD91E785451165EF10903E5E
:100C000069A80327C4FD85476318F70085453705A4
:100C10000200EF10904151A00327C4FD89476318DB
:100C2000F700854537050400EF103040BDA00327CD
:100C3000C4FD8D476318F700854537050800EF10A0
:100C4000D03EA1A80327C4FD91476318F70085454E
:100C500037051000EF10703D89A00327C4FD9547AC
:100C60006318F700854513050004EF10103C35A00C
:100C70000327C4FD99476318F7008545130500084D
:100C8000EF10B03A19A80327C4FD9D476317F7007A
:100C9000854513050010EF105039832784FD23206C
:100CA000F4FE231204FE231304FE231404FE231671
:100CB00004FEB1472315F4FEA5670327C4FD0A0708
:100CC00093874789BA979C433E87930704FEBE8566
:100CD0003A85EF10D043A5670327C4FD0A07938721
:100CE0004789BA979C4385453E85EF109065010082
:100CF000B250225445618280411106C622C40008C8
:100D0000938581821945D139054693858182138562
:100D1000818869250100B24022444101828041114D
:100D200006C622C400089385918205457D3105469B
:100D3000938591821385C18995250100B240224493
:100D400041018280411106C622C4000803A7C18365
:100D50008947630FF70003A7C1838D476314F7002A
:100D6000992039A003A7C18391476313F700452851
:100D70000100B240224441018280411106C622C4D2
:100D8000000803A7C18391476314F700DD2839A049
:100D900003A7C1838D476313F70085280100B24084
:100DA000224441018280411106C622C4000883C743
:100DB000F1823E879387C182BA97BE85114531394A
:100DC000AA8781CB83C7F182850713F7F70FA38723
:100DD000E18203C7F1828547631AF70003C7C18226
:100DE0009307500A6304F700A387018203C7F182C7
:100DF0008D476317F700A387018205472388E182A7
:100E00000100B240224441018280411122C6000803
:100E100005472385E182010032444101828041116E
:100E200006C622C4000883C771833E879387418327
:100E3000BA97BE8511455536AA8781CB83C7718382
:100E4000850713F7F70FA38BE18203C771838547EB
:100E5000631AF70003C741839307500A6304F7003E
:100E6000A38B018203C771838D476317F700A38BA0
:100E700001820547238CE1820100B24022444101F6
:100E80008280411122C600080547A38CE18201003F
:100E9000324441018280411106C622C40008938574
:100EA000418405451D3E0546938541841385018B8C
:100EB000F5210100B240224441018280411106C661
:100EC00022C40008938551840545013E054693855B
:100ED00051841385418CD9210100B2402244410143
:100EE0008280011106CE22CC00102326A4FE032707
:100EF000C4FE23A4E18419280325C4FE5920EF0071
:100F0000E07A0100F240624405618280411122C60C
:100F10000008B71702409843B7170240136717003D
:100F200098C3B7170240D443B71702403707FFF8FA
:100F3000758FD8C3B71702409443B71702403707DD
:100F4000F7FE7D17758F98C3B71702409443B71704
:100F500002403707FCFF7D17758F98C3B717024013
:100F6000D443B7170240370781FF7D17758FD8C369
:100F7000B717024037079F0098C70100324441016C
:100F80008280797122D60018232EA4FC232604FE29
:100F9000232404FEB71702409443B7170240416769
:100FA000558F98C3B71702409843B7070200F98FCF
:100FB0002324F4FE8327C4FE85072326F4FE83271B
:100FC00084FE99E70327C4FE93070050E31CF7FC57
:100FD000B71702409843B7070200F98F89C78547C2
:100FE0002324F4FE19A0232404FE032784FE85474E
:100FF0006315F71EB72702409843B72702401367CF
:10100000070198C3B72702409843B7270240719B56
:1010100098C3B727024094438327C4FD1387F7FF83
:10102000B7376E0193870760B357F70213F777005E
:10103000B7270240558F98C337170240B7170240B1
:101040005843D8C337170240B71702405843D8C394
:1010500037170240B71702405843D8C30327C4FDCF
:10106000B7177A0093870720631BF702B717024070
:10107000D843B7170240719BD8C3B7170240D84373
:10108000B717024013671700D8C30100B717024013
:10109000DC4313F7C7009147E31AF7FE81A2B717A5
:1010A0000240D443B71702403707C1FF7D17758F41
:1010B000D8C30327C4FDB747950893870740631B30
:1010C000F700B7170240D443B71702404167558F66
:1010D000D8C355A80327C4FDB7172707938707E090
:1010E000631CF700B7170240D443B7170240370715
:1010F0003900558FD8C341A80327C4FDB7E7B80509
:1011000093870780631CF700B7170240D443B717D3
:10111000024037072900558FD8C3B5A00327C4FD67
:10112000B7A74A0493870720631CF700B71702404C
:10113000D443B717024037071D00558FD8C3A1A06D
:101140000327C4FDB777DC02938707C0631CF70051
:10115000B7170240D443B717024037071100558F25
:10116000D8C315A00327C4FDB7376E019387076066
:10117000631BF700B7170240D443B7170240370785
:101180000500558FD8C3B71702409443B7170240E4
:1011900037070001558F98C30100B71702409843E5
:1011A000B7070002F98FF5DBB7170240D843B7172E
:1011B0000240719BD8C3B7170240D843B71702400B
:1011C00013672700D8C30100B7170240DC4313F7A9
:1011D000C700A147E31AF7FE11A001A032544561F0
:1011E0008280411106C622C4000885460146F16787
:1011F000938507200145EFF03F8485450145EFF0D9
:101200008FF505472386E1840100B2402244410165
:101210008280797106D622D40018232EA4FC232CB8
:10122000B4FC232AC4FC232604FE99A00100A56770
:1012300083A74789930500043E85EF10B025AA8750
:10124000FDD7A56783A74789BE86832784FD1387BB
:101250001700232CE4FC83870700C207C183BE85E7
:101260003685EF1050208327C4FE85072326F4FE21
:101270000327C4FE832744FDE34AF7FA832744FD8E
:101280003E85B250225445618280011122CE001069
:101290002326A4FE2324B4FE2322C4FE832784FE37
:1012A00099E385470DA88327C4FE032784FE98C3CE
:1012B0008327C4FE23A207008327C4FE23A40700BC
:1012C0008327C4FE032744FED8C78327C4FE032711
:1012D00044FE98CB81473E857244056182800111AE
:1012E00022CE00102326A4FE2324B4FE8327C4FEAE
:1012F000D843832784FE3E978327C4FED8C319A80A
:101300008327C4FED8438327C4FE9C4B1D8F8327AD
:10131000C4FED8C38327C4FE984B8327C4FEDC4396
:10132000E3F0E7FE0100724405618280011122CEE4
:1013300000102326A4FE2324B4FE8327C4FE98476E
:10134000832784FE3E978327C4FE98C719A8832766
:10135000C4FE98478327C4FE9C4B1D8F8327C4FE81
:1013600098C78327C4FE984B8327C4FE9C47E3F0AD
:10137000E7FE0100724405618280011122CE001057
:101380002326A4FE8327C4FE984B8327C4FEDC4794
:10139000B307F7403E85724405618280797106D6B5
:1013A00022D40018232EA4FC232CB4FC232AC4FC32
:1013B0008327C4FDDC47032744FD637BF70C2D2600
:1013C0008327C4FD984B8327C4FDDC43B307F74054
:1013D0002326F4FE032744FD8327C4FE63FBE706B0
:1013E0008327C4FD98438327C4FDDC43BA970326B3
:1013F000C4FE832584FD3E85EF4060338325C4FE13
:101400000325C4FDE93D032784FD8327C4FEBA9765
:10141000232CF4FC8327C4FD98438327C4FDDC43BD
:10142000B306F700032744FD8327C4FEB307F74044
:101430003E86832584FD3685EF40602F032744FDDB
:101440008327C4FEB307F740BE850325C4FD413D95
:1014500025A08327C4FD98438327C4FDDC43BA97A6
:10146000032644FD832584FD3E85EF40402C8325E3
:1014700044FD0325C4FDA5358327C4FDD847832734
:1014800044FD1D8F8327C4FDD8C7052C814711A0BB
:1014900089473E85B250225445618280797106D6D3
:1014A00022D426D20018232EA4FC232CB4FC232AF9
:1014B000C4FC2328D4FCA30704FE832744FD8443F3
:1014C0000325C4FD5D3DAA8763FF97008327C4FD04
:1014D000984B8327C4FDDC471D8F832744FD98C3A9
:1014E0008547A307F4FE8327C4FD984B8327C4FDDB
:1014F0009C47B307F7402324F4FE832744FD9C4315
:10150000032784FE6366F702832784FDBDC7832714
:10151000C4FD98438327C4FD9C473E97832744FD21
:101520009C433E86BA85032584FDEF404020B1A050
:10153000832784FDB9C38327C4FD98438327C4FD53
:101540009C47BA97032684FEBE85032584FDEF40A1
:10155000001E032784FD832784FEB306F70083273C
:10156000C4FD8C43832744FD9843832784FEB3073F
:10157000F7403E863685EF40801B832704FD85E7D4
:10158000A522832744FD9C43BE850325C4FD793BEA
:101590008327C4FDD847832744FD9C433E97832778
:1015A000C4FDD8C7192A8347F4FE99C38D4711A0FB
:1015B00081473E85B2502254925445618280011188
:1015C00022CE00102326A4FE8327C4FEFD8B0547F0
:1015D000B316F70037E700E08327C4FE95839387AF
:1015E00007048A07BA9794C3010072440561828098
:1015F000011122CE00102326A4FE8327C4FEFD8BFA
:101600000547B316F70037E700E08327C4FE95834C
:10161000938707068A07BA9794C30100724405614D
:101620008280011122CE00102326A4FEAE87A305DE
:10163000F4FE37E700E08327C4FEBA970347B4FE01
:101640002380E7400100724405618280011106CECB
:1016500022CC00102326A4FE0325C4FE8D370100F2
:10166000F240624405618280011106CE22CC001056
:101670002326A4FE0325C4FEA53F0100F2406244D8
:1016800005618280011106CE22CC00102326A4FE23
:10169000AE87A305F4FE8347B4FEBE850325C4FED2
:1016A00049370100F240624405618280411122C63F
:1016B00000080100324441018280411106C622C463
:1016C000000883A7018599C783A701851387F7FFC2
:1016D00023A8E18483A7018599E3EFE0DFB201004D
:1016E000B240224441018280411106C622C4000852
:1016F00083A7018599E3EFE0BFB083A70185138736
:10170000170023A8E1840100B240224441018280F5
:10171000411122C6000893055052B7470140138576
:101720000780EF10805BAA8799CBEF004067930595
:101730005052B747014013850780EF10206A01001F
:101740003244410173002030411122C60008930544
:101750005052B747004013850740EF100058AA8742
:10176000A1C303A7018485476315F700EFF00FF5C8
:1017700005A003A7018489476315F700EFF02FDA6E
:1017800001A803A701848D476314F700EFF0AFF0C1
:1017900093055052B747004013850740EF1000648F
:1017A00001003244410173002030411122C600087B
:1017B00093055052B757004013850780EF10E05152
:1017C000AA8789CB93055052B757004013850780ED
:1017D000EF10C0600100324441017300203041111C
:1017E00022C6000893055052B7570040138507C022
:1017F000EF10A04EAA8789CB93055052B7570040EF
:10180000138507C0EF10805D010032444101730071
:101810002030411122C60008930550523755004030
:10182000EF10A04BAA8789CBEFF0CFD19305505290
:1018300037550040EF10805A0100324441017300D7
:101840002030411122C6000893055052B7270040AE
:1018500013850780EF106048AA8789CB9305505203
:10186000B727004013850780EF104057010032442E
:10187000410173002030411122C6000893055052E7
:10188000B7270040138507C0EF102045AA878DC7F2
:1018900003A7018485476309F70003A701848947EB
:1018A0006314F700EFF04FC593055052B72700407F
:1018B000138507C0EF1080520100324441017300CC
:1018C0002030411122C600089305505237250040B0
:1018D000EF10A040AA8799C79305505237250040C2
:1018E000EF10C04F0100324441017300203041111C
:1018F00022C60008B707055083C7070193F7F70F03
:10190000918B85C3EFF06FC7B707055083C70701F9
:1019100013F7F70FB70705506D9B1377F70F238861
:10192000E70001003244410173002030411122C61A
:1019300000080545EF00207D2A8785476315F700DD
:101940000545EF00B0010100324441017300203031
:10195000411122C600080945EF00E07A2A87854731
:101960006315F7000945EF00607F01003244410133
:1019700073002030411122C600081145EF00A07805
:101980002A8785476315F7001145EF00207D010088
:101990003244410173002030411122C60008214524
:1019A000EF0060762A8785476315F7002145EF0031
:1019B000E07A01003244410173002030411122C617
:1019C00000084145EF0020742A8785476315F7001A
:1019D0004145EF00A07801003244410173002030FE
:1019E000411122C6000813050002EF00C0712A87CA
:1019F00085476316F70013050002EF0020761305F4
:101A00000004EF0040702A8785476316F70013052E
:101A10000004EF00A07413050008EF00C06E2A87D1
:101A200085476316F70013050008EF0020731305C0
:101A30000010EF00406D2A8785476316F7001305F5
:101A40000010EF00A07113050020EF00C06B2A8783
:101A500085476316F70013050020EF002070010092
:101A60003244410173002030411122C600081305A1
:101A70000040512D2A8785476316F7001305004063
:101A8000EF00C06D856713850780B52D2A878547D0
:101A90006316F700856713850780C9250565A525A9
:101AA0002A8785476314F70005654D2D0965A12D2B
:101AB0002A8785476314F70009654D251165A1251F
:101AC0002A8785476314F7001165492D2165252D67
:101AD0002A8785476314F7002165492501003244B0
:101AE000410173002030411122C600088545B737F7
:101AF0000140138507C0EF00B057AA8781CB854509
:101B0000B7370140138507C0EF00905D01003244F4
:101B1000410173002030411122C600088545370578
:101B20000040EF00F054AA8791C785453705004073
:101B3000EF00105B0100324441017300203041117D
:101B400022C600088545B707004013850740EF000F
:101B50003052AA8781CB8545B707004013850740DF
:101B6000EF00105801003244410173002030411150
:101B700022C600088545B717004013850780EF008F
:101B8000304FAA8781CB8545B71700401385078062
:101B9000EF00105501003244410173002030411123
:101BA00022C600088545B7170040138507C0EF001F
:101BB000304CAA8781CB8545B7170040138507C0F5
:101BC000EF001052010032444101730020304111F6
:101BD00022C60008854537150040EF007049AA87E6
:101BE00091C7854537150040EF00904F0100324402
:101BF000410173002030411122C600088545B71706
:101C0000004013850740EF00B046AA8781CB854589
:101C1000B717004013850740EF00904C0100324495
:101C2000410173002030411122C600088545B737B5
:101C3000014013850740EF00B043AA8781CB85455B
:101C4000B737014013850740EF0090490100324447
:101C5000410173002030411122C600088545B75765
:101C60000140138507C0EF00B040AA8781CB8545AE
:101C7000B7570140138507C0EF009046010032447A
:101C8000410173002030411122C6000885453755B7
:101C90000140EF00F03DAA8791C7854537550140C7
:101CA000EF00104401003244410173002030411123
:101CB00022C6000801003244410173002030411166
:101CC00022C6000801A0411106C622C44AC24EC065
:101CD0000008EFF07FA1B747950813850740EFF0A4
:101CE0004FA0EFF00FD0130600049385818D13856C
:101CF0008195EFF08FD985460146F16793850720DE
:101D00000145EFE07FD385450145EFE0DFC4814524
:101D100013055003EFF01F97A5679385C781014511
:101D2000EFE09FBFB5450145EFE05FB5A94501452F
:101D3000EFE0DFB4EFF07F9813858195EFF0EFE3EC
:101D40002A8723ACE18483A7818585CB81461386CE
:101D500081859385819113858195EFF02FF4A56797
:101D6000938587820145EFE03FBB83A781853E864F
:101D7000938581910145EFE0DFB503A781848967F1
:101D8000938707F43357F702BA878A07BA9786070B
:101D90003E8981494A85CE85EFE04FD271BF41111E
:101DA00006C622C40008938541850145EFE0FFC2C5
:101DB00005469385418513858195EFF02FDE01005F
:101DC000B24022444101828001A001A001A001A0F3
:101DD00001A001A001A001A001A001A001A001A0FB
:101DE00001A001A001A001A001A001A001A001A0EB
:101DF00001A001A001A001A001A001A001A001A0DB
:101E000001A001A001A001A001A001A001A001A0CA
:101E100001A001A001A001A001A001A001A001A0BA
:101E200001A001A001A001A001A001A001A001A0AA
:101E300001A001A001A001A001A001A001A001A09A
:101E400001A001A001A001A001A001A001A001A08A
:101E500001A001A001A001A001A001A001A001A07A
:101E600001A001A001A001A001A001A001A001A06A
:101E700001A001A001A001A001A001A001A001A05A
:101E800001A001A001A07390123497F1FF1F93816C
:101E900061B917E100201301E11617750000130561
:101EA000A50297E5FF1F9385E5151386818263FAE6
:101EB000C5008322050023A0550011059105E3EA22
:101EC000C5FE13858182938501976377B500232032
:101ED00005001105E36DB5FEFD42739002BCFD42A5
:101EE00073904280B78200009382828873A0023090
:101EF00097E2FFFF9382821493E232007390523094
:101F0000EF00400197020000938222DC73901234AC
:101F100073002030411106C622C40008B7170240E2
:101F20009843B71702401367170098C3B7170240CA
:101F3000D443B71702403707FFF8758FD8C3B717D8
:101F400002409443B71702403707F7FE7D17758F9D
:101F500098C3B71702409443B71702403707FCFFF6
:101F60007D17758F98C3B7170240D443B717024047
:101F7000370781FF7D17758FD8C3B7170240370722
:101F80009F0098C731200100B24022444101828065
:101F9000411106C622C4000831200100B24022448B
:101FA00041018280011122CE0010232604FE232449
:101FB00004FEB71702409443B71702404167558F9C
:101FC00098C3B71702409843B7070200F98F23243C
:101FD000F4FE8327C4FE85072326F4FE832784FEB0
:101FE00099E70327C4FE93070050E31CF7FCB717DB
:101FF00002409843B7070200F98F89C78547232419
:10200000F4FE19A0232404FE032784FE85476318E9
:10201000F70EB72702409843B7270240136707011E
:1020200098C3B72702409843B7270240719B98C3D3
:10203000B72702409843B72702401367270098C389
:1020400037170240B71702405843D8C3371702402A
:10205000B71702405843D8C337170240B71702409A
:102060005843D8C3B7170240D443B71702403707C5
:10207000C1FF7D17758FD8C3B7F7FF1F9387C77050
:1020800098439167F98F99EBB7170240D443B7177C
:10209000024037073D00558FD8C309A8B717024043
:1020A000D443B71702404167558FD8C3B7170240D2
:1020B0009443B717024037070001558F98C30100BA
:1020C000B71702409843B7070002F98FF5DBB7173F
:1020D0000240D843B7170240719BD8C3B7170240DC
:1020E000D843B717024013672700D8C30100B717BA
:1020F0000240DC4313F7C700A147E31AF7FE0100D3
:10210000724405618280797122D60018232EA4FCC6
:10211000232604FE232404FEB707014093870740CB
:102120009C430327C4FDF98F2324F4FEB707014025
:1021300093870740D84B8327C4FDF98F81CB832732
:1021400084FE89C785472326F4FE19A0232604FEB2
:102150008327C4FE3E85325445618280011122CE20
:1021600000102326A4FEB7070140938707400327EA
:10217000C4FED8CB0100724405618280397122DE31
:1021800080002326A4FC2324B4FC232604FE232061
:1021900004FE232404FE232E04FC232204FE232C0D
:1021A00004FC832784FC9C47BD8B2326F4FE8327F5
:1021B00084FC9C47C18B89CB832784FCDC430327A9
:1021C000C4FED98F2326F4FE832784FC83D707001F
:1021D00093F7F70FF1CF8327C4FC9C432322F4FE2F
:1021E000232404FE65A8832784FE0547B317F70060
:1021F000232EF4FC832784FC83D707003E878327A4
:10220000C4FDF98F2320F4FE032704FE8327C4FDB9
:102210006311F708832784FE8A07232EF4FC8327A3
:10222000C4FD3D47B317F700232CF4FC832784FD3E
:1022300093C7F7FF032744FEF98F2322F4FE832779
:10224000C4FD0327C4FEB317F700032744FED98F4C
:102250002322F4FE832784FC984793078002631BA4
:10226000F700832784FE05473317F7008327C4FC54
:10227000D8CB05A0832784FC984793078004631A72
:10228000F700832784FE05473317F7008327C4FC34
:1022900098CB832784FE85072324F4FE032784FE3E
:1022A0009D47E3F2E7F48327C4FC032744FE98C369
:1022B000832784FC03D707009307F00F63F1E70E31
:1022C0008327C4FCDC432322F4FE232404FE75A8E8
:1022D000832784FEA1070547B317F700232EF4FCDC
:1022E000832784FC83D707003E878327C4FDF98FAB
:1022F0002320F4FE032704FE8327C4FD6312F7089E
:10230000832784FE8A07232EF4FC8327C4FD3D47E0
:10231000B317F700232CF4FC832784FD93C7F7FF42
:10232000032744FEF98F2322F4FE8327C4FD0327ED
:10233000C4FEB317F700032744FED98F2322F4FE0F
:10234000832784FC984793078002631BF700832749
:1023500084FEA10705473317F7008327C4FCD8CBB9
:10236000832784FC984793078004631BF700832727
:1023700084FEA10705473317F7008327C4FC98CBD9
:10238000832784FE85072324F4FE032784FE9D47CC
:10239000E3F0E7F48327C4FC032744FED8C301001D
:1023A000725421618280011122CE00102326A4FEE6
:1023B000AE872322C4FE2315F4FE832744FE99C76B
:1023C0000357A4FE8327C4FE98CB31A00357A4FE75
:1023D0008327C4FED8CB01007244056182807971E5
:1023E00022D60018232EA4FC232CB4FC232404FEA4
:1023F000232204FE232604FE232004FE8327C4FD9B
:1024000063D80700B7070140DC4F2326F4FE31A054
:10241000B7070140DC432326F4FE8327C4FDC183B4
:10242000BD8B2320F4FE0327C4FDC167FD17F98F80
:102430002324F4FE0327C4FDB70730007D8FB707C0
:1024400030006315F7020327C4FEB70700F1FD173C
:10245000F98F2326F4FEB7070140D443B7070140A4
:10246000370700F17D17758FD8C3ADA00327C4FDD2
:10247000B7071000F98F8DCB832704FE0D47B317E4
:10248000F7002322F4FE832744FE93C7F7FF0327B8
:10249000C4FEF98F2326F4FE0327C4FEB707000FFE
:1024A000D98F2326F4FE3DA08327C4FDD583920750
:1024B000032784FEB317F70093C7F7FF0327C4FE73
:1024C000F98F2326F4FE0327C4FEB707000FD98F28
:1024D0002326F4FE832784FD91CF8327C4FDD58373
:1024E0009207032784FEB317F7000327C4FED98F92
:1024F0002326F4FE8327C4FD63D80700B7070140F5
:102500000327C4FED8CF31A0B70701400327C4FE7C
:10251000D8C30100325445618280397122DE8000C7
:102520002326A4FC232204FE232604FE232004FEEB
:10253000232E04FC232404FEB7170240DC43B18B96
:102540002322F4FE032744FE91476303F702032787
:1025500044FEA1476306F702832744FE63990714EC
:102560008327C4FC37177A001307072098C389AA6A
:102570008327C4FC37177A001307072098C389A262
:10258000B7170240D843B7073C00F98F2326F4FE63
:10259000B7170240D843C167F98F2320F4FE832781
:1025A000C4FEC98389072326F4FEB7F7FF1F93876C
:1025B000C77098439167F98F91EB0327C4FEC54715
:1025C0006319F704C9472326F4FEA1A00327C4FE1C
:1025D00089476315F700C9472326F4FE0327C4FE85
:1025E000BD476318F700B5472326F4FE854723242B
:1025F000F4FE0327C4FEC1476315F700BD47232639
:10260000F4FE0327C4FEC5476315F700C147232620
:10261000F4FE832704FEA1E3B747024093870780B7
:102620009C43C18B89CF0327C4FEB7177A009387D9
:1026300007203307F7028327C4FC98C399A8032710
:10264000C4FEB7173D00938707903307F70283272F
:10265000C4FC98C33DA8B7170240D843B70702008F
:10266000F98F89CF0327C4FEB7173D0093870790E2
:102670003307F7028327C4FC98C321A80327C4FEAD
:10268000B7177A00938707203307F7028327C4FC24
:1026900098C3032784FE85476313F7028327C4FC8E
:1026A0009C4313D717008327C4FC98C309A883272A
:1026B000C4FC37177A001307072098C311A0010044
:1026C000B7170240DC4393F7070F2322F4FE83275A
:1026D00044FE91832322F4FEB707002013870700EE
:1026E000832744FEBA9783C7070093F7F70F232E7B
:1026F000F4FC8327C4FC98438327C4FD3357F700B9
:102700008327C4FCD8C3B7170240DC4393F7077094
:102710002322F4FE832744FEA1832322F4FEB7077D
:10272000002013870700832744FEBA9783C707005A
:1027300093F7F70F232EF4FC8327C4FCD843832799
:10274000C4FD3357F7008327C4FC98C7B71702406E
:10275000D843916793870780F98F2322F4FE83275C
:1027600044FEAD832322F4FEB70700201387070041
:10277000832744FEBA9783C7070093F7F70F232EEA
:10278000F4FC8327C4FCD8438327C4FD3357F700E8
:102790008327C4FCD8C7B7170240D843B167F98F65
:1027A0002322F4FE832744FEB9832322F4FEB707D5
:1027B000002013870722832744FEBA9783C70700A8
:1027C00093F7F70F232EF4FC8327C4FCD847832705
:1027D000C4FD3357F7028327C4FC98CB0100725421
:1027E00021618280011122CE00102326A4FE232421
:1027F000B4FE832784FE99CBB7170240944FB717D6
:1028000002400327C4FE558F98CF21A8B717024076
:10281000944F8327C4FE13C7F7FFB7170240758F85
:1028200098CF0100724405618280011122CE001010
:102830002326A4FE2324B4FE832784FE99CBB71756
:102840000240D44FB71702400327C4FE558FD8CF9C
:1028500021A8B7170240D44F8327C4FE13C7F7FF40
:10286000B7170240758FD8CF01007244056182808E
:10287000797122D60018232EA4FCAE87231DF4FC08
:10288000232604FE231504FE231404FE8327C4FD1F
:1028900083D707011397070141838357A4FDF98F5D
:1028A0002315F4FE8327C4FD83D7C70013970701C0
:1028B00041838357A4FDF98F2314F4FE8357A4FEAC
:1028C00081CB835784FE89C785472326F4FE19A050
:1028D000232604FE8327C4FE3E8532544561828050
:1028E000011122CE00102326A4FEAE872315F4FE8C
:1028F0008357A4FE93C7F7FF1397070141838327EC
:10290000C4FE2398E70001007244056182805D7176
:1029100086C6A2C48008232EA4FA232CB4FA232648
:1029200004FE232404FE232204FE232004FE232E7F
:1029300004FC8327C4FB232EF4FC8327C4FB83D72A
:102940000701C207C1832326F4FE0327C4FEB5672F
:10295000FD17F98F2326F4FE832784FB83D76700B6
:102960003E878327C4FED98F2326F4FE8327C4FE27
:102970001397070141838327C4FB2398E70083272C
:10298000C4FB83D7C700C207C1832326F4FE0327F5
:10299000C4FEBD679387379FF98F2326F4FE8327F4
:1029A00084FB03D74700832784FB83D78700D98F15
:1029B000139707014183832784FB83D7A700D98F0F
:1029C000C207C1833E878327C4FED98F2326F4FE26
:1029D0008327C4FE1397070141838327C4FB2396F3
:1029E000E7008327C4FB83D74701C207C18323269F
:1029F000F4FE0327C4FEC1679387F7CFF98F232620
:102A0000F4FE832784FB83D7C7003E878327C4FE59
:102A1000D98F2326F4FE8327C4FE13970701418331
:102A20008327C4FB239AE700930784FC3E85EFF0DD
:102A3000DFAE0327C4FDB7470140938707806317C4
:102A4000F700832744FD2324F4FE29A0832704FDF7
:102A50002324F4FE8327C4FB83D7C700C207C183A6
:102A6000C207C18763D20702032784FEBA8786079D
:102A7000BA978E073E97832784FB9C438607B357FC
:102A8000F7022322F4FE05A0032784FEBA878607F7
:102A9000BA978E073E97832784FB9C438A07B357D8
:102AA000F7022322F4FE032744FE93074006B357A0
:102AB000F70292072326F4FE8327C4FE13D74700AC
:102AC00093074006B307F702032744FEB307F74016
:102AD0002320F4FE8327C4FB83D7C700C207C1832A
:102AE000C207C18763D20702832704FE8E071387BC
:102AF000270393074006B357F7029D8B0327C4FEB5
:102B0000D98F2326F4FE05A0832704FE920713879E
:102B1000270393074006B357F702BD8B0327C4FE74
:102B2000D98F2326F4FE8327C4FE13970701418320
:102B30008327C4FB2394E7000100B640264461616B
:102B40008280011122CE00102326A4FE2324B4FE8D
:102B5000832784FE95C38327C4FE83D7C7001397BA
:102B6000070141838967D98F139707014183832721
:102B7000C4FE2396E70015A08327C4FE83D7C700B1
:102B8000139707014183F977FD17F98F1397070111
:102B900041838327C4FE2396E70001007244056148
:102BA0008280797122D60018232EA4FCAE87232AB6
:102BB000C4FC231DF4FC232404FE232204FE232052
:102BC00004FE232604FE8327C4FD2326F4FE835738
:102BD000A4FD93F7F70F958393F7F70F2324F4FEE3
:102BE0008357A4FDFD8B2322F4FE832744FE054773
:102BF000B317F7002320F4FE032784FE85476318EC
:102C0000F7008327C4FEB1072326F4FE0DA0032797
:102C100084FE89476318F7008327C4FEC107232673
:102C2000F4FE31A08327C4FED1072326F4FE8327B8
:102C300044FD99CB8327C4FE94438327C4FE032716
:102C400004FE558F98C321A88327C4FE944383278D
:102C500004FE13C7F7FF8327C4FE758F98C30100D6
:102C6000325445618280011122CE00102326A4FE39
:102C7000AE872315F4FE8357A4FE93F7F71F13972F
:102C8000070141838327C4FE2392E70001007244B9
:102C900005618280797122D60018232EA4FCAE87AC
:102CA000231DF4FC232604FE8327C4FD83D70700DD
:102CB0001397070141838357A4FDF98FC207C1838E
:102CC00089C785472326F4FE19A0232604FE8327FF
:102CD000C4FE3E85325445618280797122D6001847
:102CE000232EA4FCAE87231DF4FC232204FE2326FE
:102CF00004FE232004FE232404FE8357A4FD93F73F
:102D0000F70F958393F7F70F2320F4FE8357A4FD65
:102D1000FD8B2326F4FE8327C4FE0547B317F70077
:102D20002326F4FE032704FE8547631FF70083274D
:102D3000C4FD83D7C700C207C1833E878327C4FE73
:102D4000F98F2326F4FE3DA8032704FE8947631F5D
:102D5000F7008327C4FD83D70701C207C1833E87DD
:102D60008327C4FEF98F2326F4FE29A88327C4FDF8
:102D700083D74701C207C1833E878327C4FEF98FEB
:102D80002326F4FE8357A4FDA183C207C183232217
:102D9000F4FE832744FE0547B317F7002322F4FE11
:102DA0008327C4FD83D70700C207C1833E878327DB
:102DB00044FEF98F2322F4FE8327C4FE81CB8327B0
:102DC00044FE89C785472324F4FE19A0232404FE6A
:102DD000832784FE3E85325445618280797122D6F4
:102DE0000018232EA4FCAE87231DF4FC231704FE39
:102DF000231604FE8357A4FDA1832317F4FE8357F3
:102E0000E4FE0547B317F7002316F4FE8357C4FE0C
:102E100093C7F7FF1397070141838327C4FD2390CE
:102E2000E7000100325445618280011122CE00107A
:102E3000AA87A307F4FEB70700500347F4FE420732
:102E40004183239AE702B707005083C7670313F74C
:102E5000F70FB7070050719B1377F70F238BE7022B
:102E60000100724405618280011122CE0010AA8700
:102E7000A307F4FEB70700500347F4FE420741835F
:102E8000239CE702B707005083C7A70313F7F70F88
:102E9000B7070050719B1377F70F238DE7020100EE
:102EA000724405618280797106D622D40018AA87FF
:102EB000A30FF4FCA30704FE15A803A7818683478C
:102EC000F4FEBA9703C7070083A681868347F4FE02
:102ED00093870704B6971347F7FF1377F70F2380FD
:102EE000E7008347F4FE8507A307F4FE0347F4FEDB
:102EF0008347F4FDE363F7FC8347F4FD3E853537F4
:102F00000100B250225445618280797106D622D4E4
:102F10000018AA87A30FF4FCA30704FE15A803A7B3
:102F2000C1868347F4FEBA9703C7070083A6C1860C
:102F30008347F4FE93870704B6971347F7FF137789
:102F4000F70F2380E7008347F4FE8507A307F4FE0D
:102F50000347F4FE8347F4FDE363F7FC8347F4FD86
:102F60003E8519370100B25022544561828001111B
:102F700022CE0010230704FEB707005083C7670066
:102F8000A306F4FE8347D4FE898BE385073CB7078D
:102F9000005083C7770093F7F70F93F70703414774
:102FA000E38FE73841476346F700E38207226F006B
:102FB000503913070002E38AE70413070003E39282
:102FC000E738B707005019472389E702B7070050D1
:102FD0001147A389E70283A7418603C7670083C718
:102FE0007700A207D98F139707014183239DE186BC
:102FF00083A7418603C71700238CE18683A74186F8
:1030000083C707002306F4FEA30704FE230704FE7C
:1030100083A7418683C7070093F70706638D0712CE
:1030200083C7818793F7F70F93F70702C5C783C755
:10303000818793F7F70F13071002638BE7001307DD
:103040002002638BE708130700026389E708BDA825
:10305000370700201307872223A8E1869D47A3078F
:10306000F4FE83D7A1871397070141839D4763E946
:10307000E70083D7A187C207C18393F7F70F11A099
:10308000A147A307F4FE03A7418683A701878346D0
:10309000F4FE3686BE853A85EF20606983D7A18726
:1030A0001397070141838347F4FEC207C183B30727
:1030B000F740139707014183239DE18603A701870A
:1030C0008347F4FE3E9723A8E18611A8FD57230706
:1030D000F4FE31A0010021A0010011A0010003476E
:1030E000E4FE9307F00F6305F7688347F4FE139738
:1030F0000701418383D7A187C207C1836379F700A2
:103100008347F4FE139707014183239DE18683D70C
:1031100041871397070141839D4763E9E70083D700
:103120004187C207C18393F7F70F11A0A147A307F7
:10313000F4FE83A701870347F4FE3A86BE85138514
:10314000C185EF20C05E03A701878347F4FE3E9749
:1031500023A8E18631AD83C7818793F7F70F2D4709
:10316000636DF75E13972700A56793870796BA9755
:103170009C43828783A7418603C7270083C7370004
:10318000A207D98FC207C183A183C207C1831307D6
:1031900020026367F71213972700A56793870799A3
:1031A000BA979C43828725671307478B23A8E1863C
:1031B000C947A307F4FE09AA25671307878C23A82C
:1031C000E18693073004A307F4FEFDA883A7418698
:1031D00003C7270083C73700A207D98FC207C1835F
:1031E00093F7F70F05476386E70205476344F70047
:1031F00089CB99A809476387E7020D47638DE702EA
:10320000A1A01387C18123A8E1869147A307F4FEFB
:1032100081A025671307079223A8E186B947A30772
:10322000F4FE3DA025671307079323A8E186B14765
:10323000A307F4FE31A825671307C79323A8E186E7
:10324000D947A307F4FE29A0FD572307F4FE010088
:10325000A5A825671307C79023A8E186D147A30730
:10326000F4FE9DA025671307479523A8E186A9478B
:10327000A307F4FE91A8B707002083C7472293F75E
:10328000F70F9DE713061004A5679385A78CB70772
:10329000002013852701EF208049370700201307FE
:1032A000070123A8E18693073004A307F4FE29A8A9
:1032B000FD572307F4FE09A8FD572307F4FE29A0B4
:1032C000FD572307F4FE01008347F4FE139707011F
:1032D000418383D7A187C207C1836379F7008347FE
:1032E000F4FE139707014183239DE18683D7A187CD
:1032F0001397070141839D4763E9E70083D7A187BF
:10330000C207C18393F7F70F11A0A147A307F4FEEB
:1033100003A7418683A701878346F4FE3686BE85D0
:103320003A85EF20C04003A701878347F4FE3E970C
:1033300023A8E18635A983A7418603C7270083C751
:103340003700A207D98FC207C18393F7F70F1397EE
:1033500007014183239DE18621A983A7418603C7F5
:1033600071871377F70F2380E70083D7A18713971F
:1033700007014183854763F6E73E0547239DE186C4
:10338000CDA683A7418603C7270083C73700A207BE
:10339000D98FC207C18313F7F70FA38BE186C9AE9C
:1033A00083A7418683C7070013F7F7018947631F87
:1033B000F70C83A7418603C7470083C75700A207BE
:1033C000D98FC207C18393F7F70F09476388E704D2
:1033D00009476346F70005476387E7085DA01307C1
:1033E0001008638BE70413072008639CE708B707FE
:1033F000005083C7A70393F7F70FE207E187E19B2C
:10340000E207E18793E72700139787016187B707F2
:1034100000501377F70F238DE702ADA8B7070050D0
:1034200083C7B70313F7F70FB7070050619B1377F4
:10343000F70FA38DE702B9A8B707005083C767034A
:1034400093F7F70FE207E187E19BE207E18793E754
:103450002700139787016187B70700501377F70F8D
:10346000238BE70205A8B707005083C7770313F73C
:10347000F70FB7070050619B1377F70FA38BE70295
:1034800011A8FD572307F4FE010029A0FD572307CB
:10349000F4FEF9ACF1AC9387C18583C70700FD8BBF
:1034A000A1E39387C18503C7270083C73700A2071D
:1034B000D98F1397070141838547631FF70093074F
:1034C000000A93F7070289C70547238BE1864DA4BD
:1034D000FD572307F4FE69ACFD572307F4FE49AC02
:1034E0009387C18583C7070013F7F7018947631CDA
:1034F000F7109387C18503C7270083C73700A2074A
:10350000D98FC207C183E5EF9387C18503C7470001
:1035100083C75700A207D98FC207C18393F7F70F5C
:1035200009476387E70409476346F7000547638D4A
:10353000E708C9A0130710086382E70613072008ED
:10354000639AE70AB707005083C7A70393F7F70FFB
:1035500037070050F19B93F7F70F230DF70237075A
:10356000005093E7370093F7F70F230DF70245A0BC
:10357000B707005083C7B70393F7F70F370700501B
:10358000F19B93F7F70FA30DF7023707005093E76E
:10359000370093F7F70FA30DF70295A8B707005070
:1035A00083C7670393F7F70F37070050F19B93F733
:1035B000F70F230BF7023707005093E7370093F715
:1035C000F70F230BF702A1A0B707005083C77703BB
:1035D00093F7F70F37070050F19B93F7F70FA30B03
:1035E000F7023707005093E7370093F7F70FA30B65
:1035F000F70231A8FD572307F4FE010009A8FD5783
:103600002307F4FEB5A2FD572307F4FE95A28DA271
:1036100083A741862380070083D7A18713970701DB
:103620004183854763F1E7140547239DE18625AA79
:10363000238E018483D741871397070141838547F0
:1036400063F5E7120547239AE18605A2238E0184DC
:103650009387C185A38007009387C18503C747006F
:1036600083C75700A207D98F139707014183930798
:1036700010086311F702B707005083C7670393F779
:10368000F70F13F737008D47631DF70A0547238EA1
:10369000E18445A89387C18503C7470083C75700C6
:1036A000A207D98F13970701418385476311F7025A
:1036B000B707005083C7770393F7F70F13F7370067
:1036C0008D476310F7080547238EE1849DA89387F3
:1036D000C18503C7470083C75700A207D98F139737
:1036E00007014183930720086311F702B7070050D1
:1036F00083C7A70393F7F70F13F737008D476312BC
:10370000F7040547238EE1842DA89387C18503C75D
:10371000470083C75700A207D98F1397070141833A
:1037200089476310F702B707005083C7B70393F7C1
:10373000F70F13F737008D476315F7000547238E02
:10374000E18483D74187139707014183894763F059
:10375000E7020947239AE18619A8FD572307F4FEDB
:1037600001A8010031A0010021A0010011A0010069
:103770000347E4FE9307F00F631DF700B7070050FF
:103780001D472389E702B70700501D47A389E702B9
:1037900065AE8307C4FE63D5070483D7A18713975B
:1037A00007014183A14763E9E70083D7A187C207E7
:1037B000C18393F7F70F11A0A147A307F4FE83D7A6
:1037C000A1871397070141838347F4FEC207C18392
:1037D000B307F740139707014183239DE18619A0A2
:1037E000A30704FEB70700500347F4FE42074183D6
:1037F0002398E702B707005011472389E702B7076C
:1038000000501147A389E70281A6B707005083C77C
:10381000770093F7F70F93F7F70313071002638509
:10382000E71213072002638DE71413070002639E5B
:10383000E71883C7818793F7F70F15476380E70A77
:1038400019476394E70E83D7A18713970701418334
:103850009D4763E9E70083D7A187C207C18393F738
:10386000F70F11A0A147A307F4FE03A7418683A782
:1038700001878346F4FE3686BE853A85EF10306BAD
:1038800083D7A1871397070141838347F4FEC207BB
:10389000C183B307F740139707014183239DE18656
:1038A00003A701878347F4FE3E9723A8E186B70765
:1038B00000500347F4FE420741832398E702B7070D
:1038C000005083C7270313F7F70FB70700501347BC
:1038D00047001377F70F2389E702B5A0B707005019
:1038E00083C7370093F7F70FE207E18793F707F8ED
:1038F00013978701618783D7A187C207C183E20736
:10390000E187D98F139787016187B7070050137735
:10391000F70FA381E700B707005009472389E702A3
:10392000B7070050A389070239A8B70700502398AA
:103930000702B707005009472389E702B70700507D
:10394000A3890702010059A0B707005083C7670386
:1039500013F7F70FB7070050719B1377F70F238BFF
:10396000E702B707005083C7670313F7F70FB707DE
:103970000050134747001377F70F238BE702B9A0D6
:10398000B707005083C7A70313F7F70FB707005017
:10399000134747001377F70F238DE702B70700504F
:1039A00083C7A70393F7F70FE207E187F19BE207CD
:1039B000E18793E72700139787016187B7070050D6
:1039C0001377F70F238DE70211A00100B5AAB707FF
:1039D000005083C7770093F7F70F93F7F703054776
:1039E0006387E70C09476386E710639E071483C764
:1039F000818793F7F70F3E87930700026313F70A57
:103A000083A7418683C7070085E383A7418683C7D1
:103A1000170099EB83A7418683C7270091E783A707
:103A2000418683C737009DCF83A7418683C7370070
:103A30001397870183A7418683C72700C2075D8F3D
:103A400083A7418683C71700A207D98F03A74186A2
:103A500003470700D98FBE85A5671385C783EF206D
:103A6000C0773DA883A7418683C76700BE85A56749
:103A70001385C784EF20607683A7418683C74700FC
:103A8000BE85A5671385C785EF20207583A741866E
:103A900083C75700BE85A5671385C786EF20E073EF
:103AA0000100B70700509C47A307F4FE41A8B707E1
:103AB000005083C7770093F7F70F93F70704A5CF5C
:103AC000B707005083C7770313F7F70FB707005006
:103AD000134747001377F70FA38BE702B707005090
:103AE0009C47A307F4FE8347F4FE3E85EFF0AFBB8F
:103AF00099A0B707005083C7770093F7F70F93F7A4
:103B0000070485CFB707005083C7B70313F7F70F34
:103B1000B7070050134747001377F70FA38DE7024D
:103B2000B70700509C47A307F4FE8347F4FE3E8589
:103B3000EFF0AFBD19A0010039A0010029A00100DC
:103B400021A0010011A00100B707005009472383FD
:103B5000E70079A08347D4FE858BB9CFB707005023
:103B6000A3810700B7070050A3890702B7070050D9
:103B7000A38B0702B7070050A38D0702B7070050B9
:103B800009472389E702B70700500947238BE7025B
:103B9000B70700500947238DE702B707005083C7D6
:103BA000670013F7F70FB707005013671700137775
:103BB000F70F2383E7002DA08347D4FE918B99CB89
:103BC000B707005083C75700B7070050114723833A
:103BD000E70039A0B70700500347D4FE2383E7006E
:103BE0000100724405617300203037081000011194
:103BF0007D183377B80026CA3378D80093D44501AE
:103C000013D34601131E37004EC61357D5010E08B5
:103C10009357D60193F4F47F1373F37F06CE22CC2F
:103C20004AC893D9F50193DEF6013367C701131F24
:103C3000350033E80701931F3600338E64406380FC
:103C4000D9196356C0136304031CB7068000930799
:103C5000F07F3368D800638FF4369307800363C026
:103C6000C735FD4763CDC747130500023305C5417E
:103C7000B3D7CF01B316A8003399AF00DD8E333927
:103C80002001B357C80133E926011D8F33092F41A5
:103C9000B3372F013306F7409317860063D4072408
:103CA000370780007D173374E600630C042C2285EF
:103CB000EF109020130785FF93070002998FB357E9
:103CC000F9003316E400D18F3319E9006341972AD4
:103CD00033059740130615007D47634DC73813071A
:103CE0000002118FB356C9003319E9003397E7007A
:103CF000558F333920013369270133D6C7008144FA
:103D00009377790081CF1377F90091476308F70023
:103D100013074900333927014A963A8993178600D9
:103D200063D6071C138514009307F07FCE856304C8
:103D3000F520B70780FFFD17F18F9398D70113592E
:103D40003900A607B3E82801B1831375F57F939670
:103D5000C7005205F2406244B182FE05C98ECD8E85
:103D6000D2444249B2494685B68505618280631EC8
:103D70000E0A138314001373E37F63170322B367E0
:103D8000E701B368F801639D041A638707406386FF
:103D900008443309FF41B307074133362F01338607
:103DA000C7409317860063D6074C3389EF41B307AA
:103DB000E84033B62F013386C740F68991B7635088
:103DC000C00F6300030CB70680009307F07F3368D1
:103DD000D800638AF43A9307800363CBC713FD4787
:103DE00063DFC73513090EFE93070002B35628019F
:103DF000630AFE00130900043309C941331928017D
:103E0000B3EF2F013339F0013369D90031A2B36721
:103E1000F801638A071C9307FEFF638C073893063B
:103E2000F07F6309DE1A3E8E0DBDB30593406391AA
:103E30000422B367E701638707329387F5FF638145
:103E400007449306F07F638CD520BE8593078003DB
:103E500063CCB72AFD4763CFB73C930700028D8F31
:103E60003319F700B356BF00B317FF003369D90009
:103E7000B337F0003357B7003369F9003308E8402F
:103E800041ACB367F801638007349307FEFF638A90
:103E900007209306F07F6308DE2E3E8E2DBF631E43
:103EA0000E149386140093F7E67F63910734B3678B
:103EB000E7016395042C6380073EB367F801638EC6
:103EC00007303309FF01B3070701333FE9013386A8
:103ED000E7019317860063D70700B70780FFFD1738
:103EE0007D8E854493777900E39F07E09317D60191
:103EF00093583900B3E8F800935736001307F07F62
:103F0000638DE404B207B18313F5F47FCE8581B5E8
:103F10003369F801333920017A99B337E9013386DF
:103F2000E70093178600E3DF07FA85049307F07F25
:103F30006396F418CE851305F07F8147814801BD53
:103F4000C1EB6384083A931636009317D8018D822B
:103F5000B3E8D700F68993573800B3E7F800F9DBE8
:103F600081451305F07FB70708008148CDB33706B8
:103F700080FF7D167D8E93777900998CE39507D825
:103F8000B5B74A85EF10407313078501FD47E3D5A8
:103F9000E7D2130685FFB317C900014905BB336992
:103FA000F80133392001DDB13309FF413306074100
:103FB00033342F01330486409317840063CD0724E4
:103FC000B3688900E39308CE8147814981441DBFCE
:103FD000E39808F80E059317D7010D81B3E8A70001
:103FE000935737009DBF0E059317D7010D81B3E896
:103FF000A700F2849357370011B7330593406382CB
:104000000412B70680009307F07F558F630DF32EDF
:104010009307800363CBA720FD4763C3A72A9307B9
:104020000002898F3319F700B356AF00B317FF00B2
:104030003369D900B337F0003357A7003369F9006B
:104040003A987E99B337F901338607019A84D1BD36
:10405000B70680009307F07F558FE319F3DE9317BF
:1040600036008D839318D801B3E81701F68993576A
:104070003800E5B5130715FE9306000233D7E700B5
:10408000630AD600930600043386C6403396C70001
:104090003369C900333920013369E900014681449D
:1040A00091B53309FF01B30707013336E9013E96A5
:1040B000931786008544E3D707E28944B70780FF5A
:1040C000FD17F18F13571900137919003369270170
:1040D0009398F70133E9280113D6170015B1130996
:1040E0000EFE93070002B3562801630AFE0013096F
:1040F00000043309C94133192801B3EF2F013339C3
:10410000F0013369D90059B63369E7013339200129
:1041100033892F41B3B72F013306F8409A84F689CB
:10412000A5BEB367E701638207189307F5FF6384B1
:10413000071C9306F07F6304D5123E85D1BD93071B
:104140000002B387C741B316F8003399FF0033D696
:10415000CF01D18E33392001B357C80133E926018D
:104160003E975DBB931736008D839318D801B3E853
:104170001701AE8493573800F68949B3EDC333690C
:10418000F801E31F09DC0E059317D7010D81B36811
:10419000F50093573700D1B36381080E93163600AC
:1041A0009317D8018D82B3E8D700F689935738006A
:1041B00091BB3309FF41B3070741333F2F013386DA
:1041C000E7418544D1BC0E059317D7010D81B36833
:1041D000F500F2849357370015B30E059317D701F6
:1041E0000D81B3E8A7009357370029BB9307F07FF1
:1041F000E382F6D43309FF013336E901B30707013F
:10420000B2979398F7011359190033E9280113D68F
:104210001700B684C1B93389EF413307E84033B69C
:104220002F013304C740F68949B43369E7013339B4
:10423000200101BD938705FE93060002B357F700E6
:10424000638AD50093060004B385B6403317B700E0
:10425000336FEF003339E0013369F90055BD93172F
:1042600036008D839318D801B3E8170193573800AF
:10427000EDB1B368C900E39708C68147814959B1D8
:104280003389EF41B307E84033B62F013386C74087
:10429000F689854411B4931636009317D8018D82A0
:1042A000B3E8D70093573800B1B993163600931787
:1042B000D8018D82B3E8D700AA84935738003DB95E
:1042C000930705FE93060002B357F700630AD50073
:1042D000930600043385A6403317A700336FEF0021
:1042E0003339E0013369F900A9BB81451305F07F3B
:1042F000B7070800A9BC3309FF01B307070133362C
:10430000F9013E9675B3931636009317D8018D8246
:10431000B3E8D7009357380089B1397193D7450175
:1043200022DC4AD856D22A891394C50006DE26DA42
:104330004ED652D45AD05ECE13F5F77F318093DA41
:10434000F501630B05109307F07F630BF514135A07
:10435000D9010E0433648A00370A8000336A4401AD
:10436000131B3900930415C00144814B13D8460137
:104370001399C6001378F87FB2881359C90093D9EE
:10438000F601630E08089307F07F6300F8041357E3
:10439000D6010E0933692701130818C0B70780003A
:1043A0003367F90093183600B38404418145BD4753
:1043B00033C83A0163E4871A97470000938747663A
:1043C0000A043E9410403E9602863367C9009384E7
:1043D0001480631207101364240081488945C1BF0B
:1043E0001306F07F81470147B207F250625452062C
:1043F000B1837E08D18FB3E70701D2544259B25935
:10440000225A925A025BF24B3A85BE852161828024
:1044100001481306F07FB70708000147F1B733677B
:10442000C9004DC7630809304A8532C4EF10C0285F
:104430002246130755FFF547930685FF998F3319D9
:10444000D900B357F60033E72701B318D6002695F5
:104450009304353F8145A1BF336A240163030A06F3
:1044600036C632C46306042A2285EF10E0242246B1
:10447000B246AA84130755FF754A138B84FF330A8B
:10448000EA4033146401335A4901336A8A00331B0A
:1044900069011305D0C0B30495400144814BF9B5BF
:1044A000336A240163180A002144014B9304F07F0E
:1044B000894B6DBD228A4A8B31449304F07F8D4B2A
:1044C00075B51144014B8144854B4DB513641400FF
:1044D00081488545E9BD136434004A878D45C1BDD7
:1044E000630A052E8547898F9306800363DDF632C4
:1044F000014681470147CDBDCE868947638DF53A98
:104500008D47E387F5F085473688E383F5FE13850D
:10451000F43FE357A0FC93F778006396072893D6FF
:1045200038009317770063D80700B70700FFFD171F
:104530007D8F138504409307E07FE3C3A7EA13163A
:10454000D70193179700B1833367D6001376F57FB1
:1045500061BDD6865287DA88DE8545B76361472319
:10456000630DEA20DA86FD145284014B931787000D
:1045700013D388013363F300935E0301B357D4036D
:10458000131F0301135F0F0193D50601139E8800CB
:104590003374D4033307FF024204C18D63FBE5008B
:1045A0009A951386F7FF63EE652663FCE526F917F7
:1045B0009A95998D33D7D503C206C182B3F5D50339
:1045C0003306EF02C205D58D63FBC5009A959306AD
:1045D000F7FF63E6652463F4C52479179A95C2074B
:1045E00041645D8F9307F4FF3375F700935807011B
:1045F000935F0E01B377FE00B302F502B386C540A8
:10460000B383F80293D502013386AF021E962E962D
:104610003385F803637376002295C168FD189355BE
:104620000601337616014206B3F81201AA954696A2
:1046300063E6B6126382B6123306CB408D8E333BEF
:10464000CB00338B66411385F43F630C6317B3587B
:10465000DB0393550601337BDB03B3061F03420BD9
:1046600033EB6501637BDB001A9B9385F8FF636D79
:104670006B20637BDB20F9181A9B330BDB40B356AE
:10468000DB0342064182337BDB03330FDF02420B45
:1046900033666601637BE6011A969385F6FF6367CE
:1046A000661E6375E61FF9161A96C208B3E8D800AD
:1046B0009395080193D20801C181B38EF5023306A8
:1046C000E641B385BF0293D60E01B387F202BE95D1
:1046D000AE96B38F5F0263F4F600C167BE9FC165FB
:1046E000FD1593D70601ED8EC206B3FEBE00BE9F38
:1046F000F696637FF6091A969387F8FF6369661A40
:104700006368F619630FF61BBE8893E8180011B5AD
:104710004A85EF00707A13075501F14593040502AD
:104720002246B246E3DAE5D4130485FF331A890042
:10473000014B85B3328532C4EF0010781307550161
:10474000F146AA87224613050502E3D6E6CEE11715
:104750003317F6008148E5B9E370CBEE729B333531
:10476000CB011A95AA961305F7FF6378D30263E687
:10477000B6106382D5102A87C1B5E3651BDF935558
:104780001B009316FA0113541A00CD8E7E0BF9BB51
:10479000E31DF6F7E38F06D6B9BFE31ED3FCE3783B
:1047A000CBFD2A8751BD93F7F8009146E389D7D610
:1047B00093B7C8FF9386480093C717008D823E9732
:1047C0008DB381468547E34CA0FEFD58E31C05D020
:1047D000930410C085471385E441B316A70033D670
:1047E000F8003395A800D18E3335A000C98E13F69A
:1047F00076003357F70001CE93F7F6001146638831
:10480000C70093874600B3B6D7003697BE86931786
:10481000870063D80704054681470147F1B636870C
:104820007DBBB28779B3FD46E3D7F6FA0556098E0C
:10483000930600023356C7006388D7009387E4438A
:10484000B317F700B3E8F800B3361001D18E13F6B2
:104850007600814701CE93F7F60011460147E392B7
:10486000C7FA931797001316D701B18313D73600F1
:10487000518F014695BEE370CBF0729B3335CB016F
:104880001A957917AA964DBBAE88C5BBAE8631BDC9
:1048900093171E0033BEC70172931A96F9183E8E05
:1048A000E315F6E7E307DEC693E818009DB1BE887E
:1048B000E30AF6FF99BD36881306F07F814701476A
:1048C00025B6E367DEFCBE88E310DEFE99B113D7A0
:1048D0004501B7071000FD1713D846011377F77F7E
:1048E0009308F07F33FEB700AA8EF58FFD81328FDB
:1048F0001378F87FFD82630B1701054363061801E7
:1049000063140701630DFE001A858280B368AE0050
:104910000543E39B08FEE319E8FED18FF5F7054355
:10492000E394EEFF0143E381D5FE054371FF336558
:10493000AE003333A000C9BF13D74501B70710003D
:10494000FD1713D846011377F77F9308F07F33FEE6
:10495000B700AA8EF58FFD81328F1378F87FFD8224
:10496000630E1703630D180129E3B368AE00631FDC
:1049700008005D8E01EE0143638C080421A8B3E8B2
:10498000C7000943639608046DD305A06384080437
:104990006385D50205438DCD7D531DA8B368AE0058
:1049A000094363970802630AE802631408005D8EF6
:1049B00075D2E391D5FEE34FE8FC63490701E3EBD1
:1049C000C7FD630FFE0001436374FE00F1D505438C
:1049D0001A858280EDFE7D53E5BF5D8E79DACDBF0D
:1049E000E36ADFFB0143E3F5EEFFF5F175B73971DB
:1049F0004AD813D945014ED652D456D29399C50000
:104A000006DE22DC26DA5AD05ECE1379F97F2A8AB6
:104A100093D9C90093DAF501630D090E9307F07F6E
:104A20006306F9181354D5018E09B36934013704AC
:104A3000800033E4890093143500130919C08149BB
:104A4000814B13D74601139AC6001377F77FB285BF
:104A5000135ACA0013DBF601630B07109307F07FAC
:104A60006303F7049357D6010E0A33EA470113078D
:104A700017C0B7078000B367FA00931536003A995C
:104A8000814833C76A01BD463A851308190063E8B7
:104A90003617174600001306A6FC8A09B29983A6AA
:104AA0000900B2968286B367CA001309F97F639939
:104AB000071293E9290081458948E1B70147930727
:104AC000F07F3704080081443204D20731807E072A
:104AD0005D8C598CA285F250625426854259D2547D
:104AE000B259225A925A025BF24B216182805A8556
:104AF0003E84AE84C68B8947638DFB0E8D47E38F62
:104B0000FBFA85472A87639EFB388147014481442D
:104B100065BF33E4A90061C036C632C4638C092A7C
:104B20004E85EF0070392246B246AA87130755FF1B
:104B30007544938487FF198CB399990033548A0084
:104B400033643401B3149A0013D746011309D0C05B
:104B5000139AC6001377F77F3309F9408149814BD7
:104B6000B285135ACA0013DBF601E31907EEB367E7
:104B7000CA00B1C7630F0A22528532C4EF00D03396
:104B800022462A87930655FFF547930587FF958FA1
:104B9000331ABA00B357F600B3E74701B315B600AE
:104BA0003309E9401309D9C08148E1BD33E4A900C4
:104BB00001ECA14981441309F07F894B59B593E970
:104BC00019008145854875BD4E84AA84B1491309F1
:104BD000F07F8D4BBDB5914981440149854B95B519
:104BE00093E93900D2878D4869BD89475685E39797
:104BF000FBF02A879307F07F01448144F1B5C16E31
:104C00001386FEFF93D6040113DE0501F18CF18DAE
:104C1000338695023383B6029358060133059E020C
:104C20001A95AA98B382C60363F36800F692C16F1F
:104C30001383FFFF33F5670093D30701B3F76800D1
:104C4000C207337366003E933306950293D808017A
:104C5000B387A602135F0601B3849302BE94FA944D
:104C6000B38E760263F3F400FE9E416A9307FAFF67
:104C7000935F0401B376F400B3F9F4007D8EC18034
:104C80003384D502C209338FD401B299CE98B307C9
:104C9000DE02935E0401B385BF02AE97BE9E330E63
:104CA000FE0363F3BE00529EC1679385F7FF33F6A0
:104CB000BE006D8C4206229693DE0E01B305D5022E
:104CC000769E3385AF0213D40501B386D302AA962C
:104CD000A296B38FF30363F3A600BE9F41657D15D3
:104CE000B3F7A600C2076D8DAA97B3855800B3B974
:104CF0003501FA97B2953384370133B6C500B30E48
:104D0000C4013385CE0033343401B3B7E701C18F1A
:104D100033BECE0113D406013336C5003E9433664C
:104D2000CE009394950032947E94B3E464002604FC
:104D300093567501B3349000DD8193179500CD8CA7
:104D4000558CDD8C9317740063DB070093D7140038
:104D500085889316F401DD8CD58C058042899307F4
:104D6000F93F6359F00893F6740081CE93F6F4008E
:104D700011466388C60093864400B3B49600269417
:104D8000B6849316740063D80600B70700FFFD17BA
:104D90007D8C930709409306E07F63CFF60E93D690
:104DA00034009314D4012604D58C318093F7F77F17
:104DB00021BB328532C4EF00301093065501F14714
:104DC000130705022246E3D1D7DC6115B317A6000D
:104DD0008145F9B3EF00500E13075501F1459307D4
:104DE00005022246B246E3D5E5D461153314AA0084
:104DF000814499BB85469D8EB1E71309E941B3977C
:104E00002401B3D4D40033192401B337F000B364C0
:104E10009900DD8C93F77400B356D40081CF93F7DB
:104E2000F40011466388C70093874400B3B4970029
:104E3000A696BE849397860063D8070485470144ED
:104E4000814459B113068003E341D6CC7D46E35635
:104E5000D6FA0556B307F640930500023356F40020
:104E60006387B6001309E943B3172401DD8CB3341B
:104E70009000D18C93F67400014499CA93F7F40022
:104E800011468146E392C7FA139496003180F606E4
:104E90008D80D58C81470DB99307F07F0144814403
:104EA00025B142896DBD370710007D17011133739D
:104EB000B70093D84601758F935ED60122CC26CADF
:104EC0000E0393D445019357D5010E0706CE4AC869
:104ED0004EC693F8F87F130EF07F33E7EE0093F49D
:104EE000F47F13D4F50133E36700131F3500FD820F
:104EF000931E3600638FC81793C61600B3851441FE
:104F00006304D4126350B018638A081AB70780008C
:104F10005D8F638FC4579307800363C2B734FD4727
:104F200063C3B748930700028D8FB3D9BE0033180F
:104F3000F700B39EFE00336838013357B700B3392A
:104F4000D001336838013303E340B3090F41B3376D
:104F50003F013306F3409317860063D207243709D5
:104F600080007D1933792601630E092C4A85A92713
:104F7000130785FF93070002998FB3D7F900331603
:104F8000E900D18FB399E9006344972A058F13068E
:104F90001700FD4663C4C63A13070002118FB3D64B
:104FA000C9003398E9003397E700558F3338000183
:104FB000B369070133D6C700814493F7790081CFE5
:104FC00093F6F90091476388F6009386490033B859
:104FD00036014296B6899317860063D6071C13875D
:104FE00014009307F07F05886306F720B70780FF5A
:104FF000FD17F18F1398D70193D93900A6073368AD
:105000003801B1831377F77F9396C7005207B182B7
:105010007E04D98EC18EF2406244D2444249B249E4
:105020004285B685056182806356B00A638A08129C
:10503000B70780005D8F6386C42D9307800363C725
:10504000B718FD4763D1B73C138805FE93070002EC
:10505000B3590701638AF50093070004B385B7408D
:105060003317B700B3EEEE003338D00133683801A0
:1050700095A2B367D7019385148099E393C6160070
:10508000630AD404D1E19387140093F7E77F639810
:10509000071EB367E3013368D70163920416638187
:1050A000073C63150842131835009316D3011358B3
:1050B000380033E806019357330019A2B367D701CC
:1050C0006384071A9387F5FF638A073A638BC523C6
:1050D000BE8591B56398051C9386140093F7E67F0F
:1050E000C1EFB367E301639F0434638C0744B36784
:1050F000D701639307460E051318D3010D8133685A
:10510000A800935733006DA8B38598406396042098
:10511000B367E301638C07309387F5FF638807402B
:105120001305F07F6382A520BE859307800363C1CA
:10513000B72AFD4763C7B73C930700028D8F33182A
:10514000F3003356BF00B317FF003368C800B3390C
:10515000F0003353B3003368380133076740ADAC18
:10516000B367D701638207109387F5FF638E071E2D
:10517000638FC52DBE85D1B59307F07F638BF6068F
:10518000FA9E33B6EE01B307E300B2971398F70126
:1051900093DE1E00B369D80113D61700B68493F7C7
:1051A0007900E39F07E09317D60113D839003368DD
:1051B000F800A685935736001307F07F6380E50655
:1051C000B207B18313F7F57F05883DBD3367D7017B
:1051D0003338E000B309E801B3B7E901338667006B
:1051E00093178600E3DD07FA85049307F07F639B3E
:1051F000F41805881307F07F8147014831B56390A3
:1052000007106300083C131836009317D701135892
:1052100038003368F800368493573700B367F800D6
:10522000E9DB01441307F07FB70708000148E9BB39
:10523000370680FF7D167D8E93F77900998CE39178
:1052400007D895B74E858D2913078501FD47E3D310
:10525000E7D2130685FFB397C900814935B3336898
:10526000D70133380001D5B1131835009317D30196
:10527000135838003368F8009357330035BFB3092B
:10528000DF413309E34033363F013309C940931707
:10529000890063CA072033E82901E31708CC814756
:1052A000014439BFB385984063810414B706800078
:1052B0009307F07F3363D3006381F8209307800363
:1052C00063CCB722FD4763C9B72C930700028D8FCB
:1052D0003318F300B356BF00B317FF003368D8008C
:1052E000B339F0003353B300336838011A97B30968
:1052F000D801B3B7D9013386E700C684D5B5E31228
:1053000008F2131835009317D30113583800336887
:10531000F8009357330019B7370580009307F07FE3
:105320003363A300E393F8E00E061318D7010D8250
:105330003368C800935737003684CDB505179306F8
:10534000000233D7E700630AD600930600043386D1
:10535000C6403396C700B3E9C90033383001B3699A
:10536000E8000146814425BDB309DF01B307E3002E
:1053700033BFE9013386E701931786008544E3D004
:1053800007E28944B70780FFFD17F18F13D7190093
:1053900013F81900336807019399F701B3E909017C
:1053A00013D6170019B9138805FE93070002B359E5
:1053B0000701638AF50093070004B385B7403317EC
:1053C000B700B3EEEE003338D00133683801B5BE14
:1053D0003363E30133386000B3890E41B3B73E0154
:1053E0003306F740C6843684BDB6B367E3016387EE
:1053F00007189387F5FF638C071C9306F07F638E75
:10540000D50ABE8565BD930700028D8FB3D9BE0056
:105410003318F700B39EFE00336838013357B700E6
:10542000B339D001336838013A936DB3131836009D
:105430009317D7011358380033E807013684935780
:1054400037009DBBBDCB3367D701E31C07DC0E05DE
:105450001318D3010D813368A800935733007DBB27
:10546000E30F08E2131836009317D70113583800DA
:105470003368F80036849357370099B3B309DF4196
:10548000B307E340333F3F013386E7418544E1B44E
:10549000131835009316D3011358380033E806016A
:1054A00093573300A5BBB389EE413306674033B948
:1054B0003E0133092641368445BC0E061318D70138
:1054C0000D823368C8009357370089BBB309DF41A9
:1054D000B307E34033363F013386C7409317860056
:1054E00063D7070AB389EE41B3076740B3BE3E01F5
:1054F0003386D7413684D1B43363E3013338600057
:10550000FDB3138805FE93070002B3590301638AB4
:10551000F50093070004B385B7403313B300336F2E
:105520006F003338E001336838017DB5B389EE414F
:10553000B3076740B3BE3E013386D7413684854406
:1055400019BC131836009317D70113583800336865
:10555000F80093573700ADB1B309DF01B307E3009B
:1055600033BFE9013386E70193178600E3D907C209
:10557000B70780FFFD177D8E854415B10E06131801
:10558000D7010D823368C8009357370035B133E82F
:10559000C900E30608D021B1138805FE9307000275
:1055A000B3590301638AF50093070004B385B7403C
:1055B0003313B300336F6F003338E00133683801C1
:1055C0003DB301441307F07FB707080035BCB309AA
:1055D000DF01B307E300B3BED9013386D70169BB4E
:1055E00093D74501B70610001387F6FF93F7F77FAF
:1055F0001306E03F6D8FFD81635CF6001306D0411A
:10560000635AF600370500801345F5FF2E9582801A
:1056100001458280130630431D8E7D48558F635DA2
:10562000C80093063041B387F640B357F7003305FF
:10563000F040E5F13E8582809387D7BEB317F7002F
:105640003355C500C98FE5B7411106C622C426C22D
:1056500005CD9357F541B3C4A7009D8C2A842685B8
:10566000A1289306E041898EA9477D8093F6F67FB5
:1056700063CDA7022D47098FB3D7E4005505B207C4
:10568000B394A400B18329A0014481468147814499
:10569000B207D206B1837E04D58FC18FB2402244B7
:1056A0002685BE859244410182805515B397A4009A
:1056B000B207B1838144E9BFC167637EF5029307F6
:1056C000F00F1307000263ECA700973700009387E1
:1056D000273DAA9703C507003305A7408280218193
:1056E000973700009387C73BAA9703C50700614718
:1056F0003305A7408280B7070001636EF500618122
:10570000973700009387C739AA9703C50700214739
:105710003305A7408280418197370000938747383F
:10572000AA9703C5070041473305A7408280B3C746
:10573000A5008D8B3307C50081E78D4763EEC70059
:10574000AA876370E50A83C6050085078505A38FD0
:10575000D7FEE3EAE7FE828093763500AA8791CAF6
:1057600083C6050085078505A38FD7FE93F637000E
:10577000FDB79376C7FF138606FE63F0C70683A3C3
:10578000050083A2450083AF850003AFC50083AE4B
:10579000050103AE450103A3850183A8C5019385D7
:1057A000450223A0770003A8C5FF23A2570023A426
:1057B000F70123A6E70123A8D70123AAC70123AC39
:1057C000670023AE17019387470223AE07FF75B723
:1057D00090419107910523AEC7FEE3EBD7FEE3E4CA
:1057E000E7F68280797122D44AD052CC56CA5AC880
:1057F00006D626D24ECE3A8AAE8A32843689428B7B
:10580000014763580600370700803344C700130779
:10581000D0022380E70093F4F8FD930760048D46DF
:105820006388F4009307500489466393F4000509E4
:10583000DA879308C100130881004A87D68522863B
:10584000EF00105093077004AA896396F400137A4E
:105850001A00630A0A0493076004338A29016397D4
:10586000F40203C7090093070003631EF700014613
:1058700081465685A285EFF08F8511C5854733890E
:10588000274123202B0183270B003E9A01468146A6
:105890005685A285EFF0AF8311E152C613070003CE
:1058A000B24763E24703B2474257B2502254B3872C
:1058B00037411CC34E8592540259F249624AD24A7A
:1058C000424B456182809386170036C62380E700ED
:1058D000C1BF2300C500130725009307B00263D69C
:1058E0000500B305B0409307D002A300F500A5471B
:1058F00063DAB70441119307F100BE882948130306
:105900003006B3E605031386F7FF93860603A38FDD
:10591000D7FEB3C60503634DB30093860603F9179C
:10592000A30FD6FE63E917013305A740410182802A
:10593000B287B685F9B7850783C6F7FF0507A30FBA
:10594000D7FECDB7930700031307450093850503E2
:105950002301F500A301B5003305A740828019712A
:105960003ACE86DEA2DCA6DA2E84CAD8CED6D2D42F
:10597000B689DAD0DECEE2CC3289D6D2E6CAEAC81F
:10598000EEC6AA84EF10303B832B05005E85EF0046
:10599000F008032B0400724702DC93760B102A8C6C
:1059A000034A84011C43F1CA9386470014C39C43F5
:1059B000081098433AD0D8433AD298473AD4DC47B3
:1059C0003ED6EF20F03D28C46CC4832CC4041737A6
:1059D00000001307271D832A8404032D0700832D4D
:1059E000470093971C0085836A86EE865685BE85A0
:1059F0003ECEEF20B03041EDF2476A86EE86568506
:105A0000BE85EFE07FF36354A008014681465685CA
:105A1000E685EFE07FF2635605009307D002A3010D
:105A2000F40493077004973A0000938A2A1863F6E7
:105A30004701973A0000938AAA17137BBBFF8D4753
:105A4000232064011CC8014B4E87CA867018A285AA
:105A50002685C12EFD5C631E95157D55F650665456
:105A6000D6544659B659265A965A065BF64B664C9A
:105A7000D64C464DB64D096182809D07E19B9386C9
:105A8000870014C39843DC4338C47CC43DBF5686AA
:105A9000E6865685E685EF20702611CD93077004C3
:105AA000973A0000938A0A11E3F947F9973A000000
:105AB000938A8A1059B75C407D57137DFA0D639520
:105AC000E70899475CC0544013670B403C18D685E3
:105AD0003EC018C09307310302C2D28813084103A5
