:100000006F30302A130000001300000013000000BE
:100010001300000013000000130000001300000094
:100020001300000013000000130000001300000084
:08003000130000007300100032
:100038000000000000000000E6350000F635000072
:1000480000000000E8390000000000000000000087
:10005800EA390000EC390000000000000000000050
:10006800EE39000000000000F03900000000000038
:10007800F2390000F4390000F6390000F8390000C0
:10008800FA390000FC3900006030000084300000BC
:10009800A8300000E430000008310000083A0000F1
:1000A8000A3A00000C3A00000E3A0000103A00002C
:1000B800123A0000143A0000163A0000183A0000FC
:1000C8001A3A00001C3A00001E3A000044310000B1
:1000D800223A00002E330000263A0000283A000099
:1000E8005E33000086330000B6330000303A00006B
:1000F800323A0000343A0000363A0000383A00003C
:100108003A3A0000662E0000AE2E0000DE2E0000F7
:10011800CC310000443A0000463A0000483A00005A
:10012800723400004C3A00004E3A0000503A000089
:10013800523A0000543A0000E6330000583A0000F2
:10014800122F0000462F0000163400004234000031
:10015800623A0000643A0000663A0000683A00001B
:100168006A3A00006C3A00006E3A0000703A0000EB
:10017800723A0000743A0000763A00002A640000DF
:100188007A3A00007C3A000022300000762F000006
:10019800AA2F0000F62F0000863A0000A2340000C3
:1001A8008A3A00008C3A00008E3A0000BE35000002
:1001B800923A0000943A0000963A0000983A0000FB
:1001C8009A3A00009C3A00009E3A0000A03A0000CB
:1001D8000000000000000000000000000000000017
:1001E8000000000000000000000000000000000007
:0801F8000000000000000000FF
:10020000737504308280B76200009382820873A005
:10021000023082803D432A876373C3029377F700DD
:10022000BDEFADE5937606FF3D8ABA960CC34CC38D
:100230000CC74CC74107E36BD7FE11E28280B306BF
:10024000C3408A069702000096966780A60023079F
:10025000B700A306B7002306B700A305B700230520
:10026000B700A304B7002304B700A303B700230318
:10027000B700A302B7002302B700A301B700230110
:10028000B700A300B7002300B700828093F5F50FF5
:1002900093968500D58D93960501D58D61B793967C
:1002A00027009702000096968682E78086FA96805D
:1002B000C1171D8F3E96E374C3F8A5B7011106CE92
:1002C00022CC00102326A4FE8327C4FE81EB8146A6
:1002D000014681450145EF00007CADA20327C4FE25
:1002E00085476319F7008146014681450545EF00C2
:1002F000807A89AA0327C4FE89476319F7008146DB
:10030000014681450945EF0000792DAA0327C4FE67
:100310008D476319F7008146014681450D45EF0081
:1003200080770DA20327C4FE91476319F700814629
:10033000014681451145EF00007629A20327C4FE3E
:1003400095476319F7008146014681451545EF0041
:100350008074CDA80327C4FE99476319F70081462E
:10036000014681451945EF000073E9A80327C4FE43
:100370009D476319F7008146014681451D45EF0001
:100380008071C9A00327C4FEA147631AF700814604
:100390000146814513050002EF00E06F65A00327C9
:1003A000C4FEA5476319F700814601468145130540
:1003B0001002D52541A80327C4FEA9476319F700F9
:1003C00081460146814513050004F125A5A80327B0
:1003D000C4FEAD476319F700814601468145130508
:1003E0001004552D85A00327C4FEB1476319F700FB
:1003F00081460146814513052004712DA1A00327E4
:10040000C4FEB5476319F7008146014681451305CF
:100410003004512505A80327C4FEB9476319F70026
:1004200081460146814513054004B52521A80327CF
:10043000C4FEBD476318F700814601468145130598
:100440005004912D0100F240624405618280011147
:1004500006CE22CC00102326A4FE2324B4FE83273C
:10046000C4FE93F7F70F91460546BE85B7270140B6
:1004700013850740EF3070338545B727014013855A
:100480000740EF30502E01008945B7270140138502
:100490000740EF301056AA87E5DBB7270140938766
:1004A0000740F847832784FEB357F700C207C1838C
:1004B0003E85F240624405618280797106D622D47D
:1004C0000018232EA4FC232CB4FCB287A30BF4FC4D
:1004D000034774FD13063005B5679385C7D53A8584
:1004E000EF20A062232404FEA30704FE15A08325A9
:1004F00084FD0325C4FDA13FAA873E87832784FE90
:10050000BA972324F4FE8347F4FE8507A307F4FE7D
:100510000347F4FE834774FDE36BF7FC834774FDE8
:10052000032784FEB357F7022324F4FE832784FEB7
:10053000C207C1833E85B250225445618280397121
:1005400006DE22DC80002326A4FC232804FC232AC8
:1005500004FC232C04FC232E04FC232004FE232271
:1005600004FE232404FE232604FE0325C4FCB93321
:10057000854513050020EF4030110145EF40C05F75
:10058000B727014013850740EF30A079232804FCEA
:10059000232A04FC232C04FCB7070E00232EF4FCB2
:1005A000232004FE85472302F4FE930704FDBE8545
:1005B000B727014013850740EF30A07C8545B7275A
:1005C000014013850740EF30F00B8145B72701400C
:1005D00013850740EF309045B7270140138507404A
:1005E000EF30300E0100B727014013850740EF3090
:1005F000700FAA87EDFBB727014013850740EF3046
:1006000070110100B727014013850740EF30B01289
:10061000AA87EDFB0100F250625421618280011132
:1006200022CE00102324A4FE2326B4FEB7F700E058
:1006300023A00700B7F700E08146014794C7D8C759
:10064000B7F700E0054798C30100B7F700E003A83B
:10065000C7009C470327C4FEC286636CD7000327EC
:10066000C4FEC286E313D7FE032784FE6363F7004C
:10067000E9BF0100724405618280011106CE22CCDF
:1006800000102326A4FE2324B4FE93068004014612
:1006900081450325C4FE012193068004014681455E
:1006A000032584FECD2E0100F24062440561828064
:1006B000011106CE22CC00102326A4FEB70700208D
:1006C000138707008327C4FEBA9703C70700930761
:1006D000F00F6311F702B5670327C4FE0A0793877B
:1006E000C7FCBA979C4383D74702C207C183C2079E
:1006F000C187B9A8B7070020138707008327C4FE66
:10070000BA9783C707003E85B926AA8785C3B56710
:100710000327C4FE0A079387C7FCBA979C4383D775
:100720004702C207C183C207C1871DA0B56703275F
:10073000C4FE0A079387C7FCBA979C4383D7470236
:10074000C207C183B307F040C207C183C207C18794
:100750003E85F240624405618280011122CE001084
:100760002326A4FEB5670327C4FE0A079387C7FCA8
:10077000BA979C432392070201007244056182806C
:10078000797106D622D40018232EA4FC232CB4FCA5
:10079000232AC4FC91450325C4FDEF108049AA8794
:1007A0003E871306C005B567938587D93A85EF2044
:1007B000C0350325C4FDEF10404D832784FD13F79A
:1007C000F70F832744FD93F7F70FBE853A857535FC
:1007D000832784FD13D787008547631AF700854573
:1007E000B70716001385070CEF30106D01A28327A1
:1007F00084FD13D78700C547631AF7008545B707FF
:10080000180013850730EF30306BCDA0832784FDAF
:1008100013D7870093071002631AF7008545B717AF
:100820001A00138507C0EF303069C9A0832784FD03
:1008300013D7870093072002631AF7008545B7177F
:100840001A0013850780EF3030674DA0832784FDA1
:1008500013D78700930710036317F70085450565D5
:10086000EF30906561A0832784FD13D7870093073D
:100870001007631BF700B7070140D84FB7070140C7
:1008800013674700D8CF9DA0832784FD13D7870027
:1008900093071008631BF700B7070140D84FB7074D
:1008A000014013670701D8CF91A0832784FD13D798
:1008B000870093071009631BF700B7070140D84F63
:1008C000B707014013670704D8CF0DA0832784FD25
:1008D00013D7870093072009631AF700B707014071
:1008E000D84FB707014013670702D8CF85450545A4
:1008F000EF408059930744FE3E85EF40F06A231293
:1009000004FEFD572314F4FE231504FE231304FEF6
:10091000230604FEB5670327C4FD0A079387C7FCB7
:10092000BA979C433E87930744FEBE853A85EF40C5
:10093000C062B5670327C4FD0A079387C7FCBA974F
:100940009C438146014689453E85EF40307CB56732
:100950000327C4FD0A079387C7FCBA979C438545C4
:100960003E85EF4030680100B250225445618280DC
:10097000411106C622C4000813063002856793851C
:10098000F7100545F53B130650028967938547220A
:100990000945FD33054691651145DD330D46A167D7
:1009A000938527002145E93B0100B24022444101E3
:1009B0008280797106D622D40018232EA4FC231736
:1009C00004FE0325C4FDED31AA872317F4FE032599
:1009D000C4FD61338317E4FE3E85B2502254456165
:1009E0008280011122CE00102326A4FEAE87A3052B
:1009F000F4FE8347B4FE9DC78327C4FEBD8B054725
:100A0000B317F70093960701C1828327C4FE13D75B
:100A10005700B5670A07938787FBBA979C433687C9
:100A200098CB35A08327C4FEBD8B0547B317F700CD
:100A300093960701C1828327C4FE13D75700B56779
:100A40000A07938787FBBA979C433687D8CB010068
:100A5000724405618280011122CE00102326A4FE7B
:100A60008327C4FE958313F77700B5670A0793873A
:100A700087FBBA979C439C470327C4FE7D8B854622
:100A80003397E600F98F99C3854711A081473E85CA
:100A9000724405618280797106D622D40018232E13
:100AA000A4FC232CB4FC232AC4FC2328D4FC23203C
:100AB00004FE232204FE232404FE8327C4FD958321
:100AC00093F7F70F9D8BA307F4FE8327C4FD93F7DD
:100AD000F70FBD8B2307F4FE0327C4FD9307F00F28
:100AE0006305F7140327C4FD9307F00F6301F714A0
:100AF0008347F4FE91E785451145EF40E03841A07A
:100B00000347F4FE85476317F70085452145EF400D
:100B1000A037B5A00347F4FE89476317F700854562
:100B20004145EF406036A1A80347F4FE8D476318A6
:100B3000F700854513050002EF40003589A0034703
:100B4000F4FE91476318F700854513050004EF4054
:100B5000A03335A00347F4FE95476318F700854599
:100B600013050008EF40403219A80347F4FE9947E7
:100B70006317F700854513050010EF40E030834709
:100B8000E4FE0547B317F700C207C1832310F4FE44
:100B9000032784FD85476317F702832704FDC207F7
:100BA000C183A183C207C18389E78D472322F4FE55
:100BB00011A8832704FDC207C183A183C207C18393
:100BC0002322F4FE832704FDC207C18393F7F70FA6
:100BD0002324F4FE0347F4FEB5670A07938787FBD7
:100BE000BA979C433E87930704FEBE853A85EF3053
:100BF0009006032784FD8547631CF7020347F4FE34
:100C0000B5670A07938787FBBA979C43BE868347DD
:100C1000E4FE0547B317F700C207C183032644FD6E
:100C2000BE853685EF30D02521A0010011A001003E
:100C3000B250225445618280011106CE22CC0010B0
:100C40002326A4FE8327C4FE89EB93068031014648
:100C50008545214589356F00E0730327C4FE85472C
:100C6000631AF700930680310146854525452535F1
:100C70006F0040720327C4FE8947631AF70093068A
:100C8000803101468545294539356F00A07003271D
:100C9000C4FE8D47631AF7009306803101468545EF
:100CA0002D45D53B6F00006F0327C4FEC147631B72
:100CB000F700930680310146854513059008E13B16
:100CC0006F00406D0327C4FEC547631AF700930603
:100CD0008031014685451305B008753B65AD032796
:100CE000C4FEC947631AF700930680310146854563
:100CF0001305D0084D3379AD0327C4FECD47631AE1
:100D0000F70093068031014685451305E0086133FD
:100D100051A50327C4FE930700106319F70093063B
:100D20008031014685450145BD33ADA50327C4FE8D
:100D3000930710106319F70093068031014685452B
:100D40000545913B81AD0327C4FE9307201063192D
:100D5000F700930680310146854509452D3B1DADC1
:100D60000327C4FE930730106319F7009306803100
:100D7000014685450D45053331AD0327C4FE930774
:100D800000116319F70093068031014685453D4502
:100D9000193309A50327C4FE93071011631AF7003E
:100DA000930680310146854513053002ED31DDA300
:100DB0000327C4FE93072011631AF70093068031BE
:100DC000014685451305A002F931E9A30327C4FEB6
:100DD00093073011631AF700930680310146854569
:100DE0001305B0024D397DA30327C4FE93070020ED
:100DF0006319F7009306803101468545194561392D
:100E000051AB0327C4FE930710206319F700930624
:100E10008031014685451D45BD39ADAB0327C4FE74
:100E200093072020631AF700930680310146854519
:100E3000130500028D31B9AB0327C4FE93073020A0
:100E4000631AF700930680310146854513051002A9
:100E5000993189A30327C4FE93070021631AF70081
:100E60009306803101468545130560042D311DA38D
:100E70000327C4FE93071021631AF70093068031FD
:100E80000146854513057004393129A30327C4FEA3
:100E900093072021631AF7009306803101468545A8
:100EA00013058004CD3EFDA10327C4FE9307302126
:100EB000631AF700930680310146854513059004B7
:100EC000D93EC9A90327C4FE93070022631AF7007D
:100ED0009306803101468545130540026D3E5DA9AC
:100EE0000327C4FE93071022631AF700930680318C
:100EF0000146854513055002793E69A90327C4FEC2
:100F000093070030631AF700930680310146854548
:100F1000130560024936BDA90327C4FE93071030AC
:100F2000631AF70093068031014685451305700268
:100F30009D368DA10327C4FE93072030631AF70066
:100F4000930680310146854513058002A93699A193
:100F50000327C4FE93073030631AF70093068031ED
:100F600001468545130590023D362DA10327C4FE99
:100F700093070031631AF7009306803101468545D7
:100F80001305C006093E39A10327C4FE930710319B
:100F9000631AF70093068031014685451305D00694
:100FA000DD3CCDAE0327C4FE93072031631AF70062
:100FB00093068031014685451305E006E93CD9AE2C
:100FC0000327C4FE93073031631AF700930680317C
:100FD000014685451305F0067D3C6DAE0327C4FE32
:100FE000930700406319F700930680310146854559
:100FF0000145553445A60327C4FE930710406319E5
:10100000F70093068031014685450545693459A6A8
:101010000327C4FE930720406319F700930680312D
:10102000014685450945853CB5A60327C4FE9307BF
:1010300030406319F70093068031014685450D4520
:10104000993C89AE0327C4FE93070070631AF7002A
:101050009306803101468545130560042D3C1DAE85
:101060000327C4FE93071070631AF70093068031BC
:101070000146854513057004393C29AE0327C4FE9B
:1010800093072070631AF700930680310146854567
:10109000130580040934FDAC0327C4FE93073070A8
:1010A000631AF700930680310146854513059004C5
:1010B000DD32CDA40327C4FE93070071631AF70045
:1010C000930680310146854513056002E932D9A4B3
:1010D0000327C4FE93071071631AF700930680314B
:1010E00001468545130570027D326DA40327C4FEB9
:1010F00093072071631AF7009306803101468545F6
:1011000013058002493A79A40327C4FE930730717E
:10111000631AF70093068031014685451305D00414
:101120009D3A8DAC8327C4FE9387078081EB93069D
:101130008031014685450945B93AA9AC0327C4FE6B
:101140008567938717806319F700930680310146FE
:1011500085450D4589323DAC0327C4FE85679387DD
:101160002780631AF70093068031014685451145B3
:10117000EFF07F9205A40327C4FE8567938737802D
:10118000631BF70093068031014685451305400433
:10119000EFF07F9001A40327C4FE85679387078142
:1011A000631BF700930680310146854513059006C1
:1011B000EFF07F8EC5A20327C4FE85679387178152
:1011C000631BF70093068031014685451305B00681
:1011D000EFF07F8CC1A20327C4FE85679387278128
:1011E000631BF70093068031014685451305D00641
:1011F000EFF07F8A45A20327C4FE85679387378176
:10120000631BF70093068031014685451305F00600
:10121000EFF07F8841A20327C4FE8567938707907C
:10122000631BF70093068031014685451305800254
:10123000EFF07F8685A20327C4FE8567938717900A
:10124000631BF70093068031014685451305900224
:10125000EFF07F8481A20327C4FE856793872790E0
:10126000631BF70093068031014685451305300462
:10127000EFF07F8205A20327C4FE8567938737902E
:10128000631BF70093068031014685451305B004C2
:10129000EFF07F8001A20327C4FE85679387079143
:1012A000631BF70093068031014685451305100640
:1012B000EFF06FFEC5A00327C4FE856793871791E3
:1012C000631BF70093068031014685451305300600
:1012D000EFF06FFCC1A00327C4FE856793872791B9
:1012E000631BF700930680310146854513055006C0
:1012F000EFF06FFA45A00327C4FE85679387379107
:10130000631BF7009306803101468545130570067F
:10131000EFF06FF841A00327C4FE8567938707921B
:10132000631BF700930680310146854513053002A3
:10133000EFF06FF685A00327C4FE856793871792A9
:10134000631BF70093068031014685451305400273
:10135000EFF06FF481A00327C4FE8567938727927F
:10136000631BF70093068031014685451305500243
:10137000EFF06FF205A00327C4FE856793873792CD
:10138000631AF70093068031014685451305F00482
:10139000EFF06FF00100F2406244056182807971E4
:1013A00022D60018232EA4FC232CB4FC8327C4FDD2
:1013B00013D78700B5670A079387C7FCBA979C4382
:1013C00083D7C7022317F4FE0357E4FE832784FD67
:1013D0003307F702896793870771B357F70223161C
:1013E000F4FE8327C4FD13D78700B5670A079387E8
:1013F000C7FCBA9798438327C4FD8D8B8A07BA9799
:10140000938747033E878357C4FE1CC301003254B1
:1014100045618280397106DE22DC80002326A4FC2F
:101420002324B4FC2322C4FC232004FE232204FE34
:10143000231404FE232804FC232A04FC232C04FC8C
:10144000232E04FC231704FE8327C4FCA1838D45AF
:101450003E85EF00007EAA873E871306F00BB56736
:10146000938587DD3A85EF10406A8327C4FCA1830A
:101470003E85EF0090010325C4FCEFF0EFFB8545AE
:101480000545EF3070208327C4FC13D747008547FC
:10149000631AF7008545B70716001385070CEF3070
:1014A000A02101A28327C4FC13D74700C547631AB4
:1014B000F7008545B707180013850730EF30C01FC8
:1014C000CDA08327C4FC13D7470093071002631AEB
:1014D000F7008545B7171A00138507C0EF30C01D08
:1014E000C9A08327C4FC13D7470093072002631ABF
:1014F000F7008545B7171A0013850780EF30C01B2A
:101500004DA08327C4FC13D747009307100363172C
:10151000F70085450565EF30201A61A08327C4FCDC
:1015200013D7470093071007631BF700B707014065
:10153000D84FB707014013674700D8CF9DA0832736
:10154000C4FC13D7470093071008631BF700B707C5
:101550000140D84FB707014013670701D8CF91A0CA
:101560008327C4FC13D7470093071009631BF700B8
:10157000B7070140D84FB707014013670704D8CF1A
:101580000DA08327C4FC13D7470093072009631AD3
:10159000F700B7070140D84FB707014013670702AC
:1015A000D8CFB707002003A70723832784FCB357AE
:1015B000F702C1832317F4FEB707002003A7072310
:1015C0008357E4FE8507BE86832784FCB387F60233
:1015D000B357F7022316F4FE0357C4FE832744FCD7
:1015E0003307F702896793870771B357F70223150B
:1015F000F4FE8357C4FEFD17C207C1832312F4FE15
:101600008357E4FE2310F4FE231304FE231104FE8B
:10161000230404FE8327C4FC13D78700B5670A0799
:101620009387C7FCBA979C433E87930704FEBE8509
:101630003A85EF309012930700072318F4FC854792
:101640002319F4FC231A04FC8357A4FE231BF4FC87
:101650008947231CF4FC8947231DF4FC231E04FC4A
:10166000231F04FC8327C4FC8D8BB9EF8327C4FCA4
:1016700013D78700B5670A079387C7FCBA979C43BF
:101680003E87930704FDBE853A85EF30F02483271B
:10169000C4FC13D78700B5670A079387C7FCBA97BE
:1016A0009C43A1453E85EF40E0338327C4FC13D71C
:1016B0008700B5670A079387C7FCBA979C43914593
:1016C0003E85EF40E04689A28327C4FC13F737002C
:1016D00085476311F7068327C4FC13D78700B567D6
:1016E0000A079387C7FCBA979C433E87930704FD7C
:1016F000BE853A85EF3010388327C4FC13D78700A6
:10170000B5670A079387C7FCBA979C43A1453E85F6
:10171000EF4000328327C4FC13D78700B5670A0760
:101720009387C7FCBA979C43930500403E85EF40E2
:10173000E044D9A88327C4FC13F737008947631016
:10174000F7068327C4FC13D78700B5670A0793877A
:10175000C7FCBA979C433E87930704FDBE853A8534
:10176000EF30704F8327C4FC13D78700B5670A0793
:101770009387C7FCBA979C43A1453E85EF40E03074
:101780008327C4FC13D78700B5670A079387C7FC74
:10179000BA979C4391453E85EF40A043B5A083276F
:1017A000C4FC13F737008D476310F7068327C4FC8A
:1017B00013D78700B5670A079387C7FCBA979C437E
:1017C0003E87930704FDBE853A85EF3090668327F8
:1017D000C4FC13D78700B5670A079387C7FCBA977D
:1017E0009C43A1453E85EF40002F8327C4FC13D7BF
:1017F0008700B5670A079387C7FCBA979C43930590
:1018000000403E85EF40A0418327C4FC13D78700EA
:10181000B5670A079387C7FCBA979C4385453E8501
:10182000EF40C0018327C4FC13D78700B5670A07C0
:101830009387C7FCBA979C4385453E85EF30907AE5
:101840000100F250625421618280011106CE22CC47
:1018500000102326A4FE2324B4FE032684FE832541
:10186000C4FE0145453E032684FE8325C4FE05458E
:101870005536032684FE8325C4FE0945613E0326B2
:1018800084FE8325C4FE0D457136032684FE832520
:10189000C4FE13050031BD3E032684FE8325C4FE2D
:1018A00013051031853E032684FE8325C4FE1305EF
:1018B00020318D36032684FE8325C4FE1305303186
:1018C000913E0145212801458D280145F120014522
:1018D0003D220100F240624405618280011106CE82
:1018E00022CC0010AA872317F4FE8317E4FE635965
:1018F000F0008317E4FEBE850145EFF05FAA0DA856
:101900008317E4FE63DB07008317E4FEB307F040B0
:10191000BE850545EFF0BFA821A88317E4FE89EB3B
:1019200081450545EFF0BFA781450145EFF03FA791
:101930000100F240624405618280011106CE22CC92
:101940000010AA872317F4FE8317E4FE6359F00002
:101950008317E4FEBE850D45EFF07FA40DA8831725
:10196000E4FE63DB07008317E4FEB307F040BE85A7
:101970000945EFF0DFA221A88317E4FE89EB81453A
:101980000945EFF0DFA181450D45EFF05FA10100B2
:10199000F240624405618280011106CE22CC001023
:1019A000AA872317F4FE8317E4FE635AF000831717
:1019B000E4FEBE8513051031EFF07F9E25A8831746
:1019C000E4FE63DC07008317E4FEB307F040BE8546
:1019D00013050031EFF0BF9C31A88317E4FE99EBAB
:1019E000814513050031EFF09F9B814513051031B0
:1019F000EFF0FF9A0100F24062440561828001111C
:101A000006CE22CC0010AA872317F4FE8317E4FE2B
:101A1000635AF0008317E4FEBE8513052031EFF012
:101A20001F9825A88317E4FE63DC07008317E4FEF4
:101A3000B307F040BE8513053031EFF05F9631A853
:101A40008317E4FE99EB814513052031EFF03F95B4
:101A5000814513053031EFF09F940100F24062445C
:101A600005618280011122CE0010AA87AE863287DE
:101A70002317F4FEB6872316F4FEBA872315F4FE67
:101A80000357E4FE8357C4FEBA97139707014183B7
:101A90008357A4FEB307F740C207C183139707011A
:101AA00041872394E1860357C4FE8357E4FEB307BE
:101AB000F7401397070141838357A4FEBA97C207E3
:101AC000C183139707014187938781862391E7009C
:101AD0000357E4FE8357C4FEBA9713970701418367
:101AE0008357A4FEBA97C207C183139707014187A2
:101AF000938781862392E7000357C4FE8357E4FE51
:101B0000B307F7401397070141838357A4FEB30738
:101B1000F740C207C18313970701418793878186E6
:101B20002393E7000100724405618280411106C6DB
:101B300022C400082145EFE0DFE7AA873E87239013
:101B4000E1860545EFE0FFE6AA873E879387018699
:101B50002391E7001145EFE0DFE5AA873E879387F1
:101B600001862392E7000945EFE0BFE4AA873E879C
:101B7000938701862393E7000397818683970186E5
:101B8000BE853A85EF503012AA873E872398E186BA
:101B90009387818603972700938701868397270081
:101BA000BE853A85EF508054AA873E879387018788
:101BB0002391E700938781860397470093870186E7
:101BC00083974700BE853A85EF50007AAA873E8703
:101BD000938701872392E7009387818603976700A5
:101BE0009387018683976700BE853A85EF50E0634F
:101BF000AA873E87938701872393E700839701870E
:101C00003E85F53B93870187839727003E85F93111
:101C100093870187839747003E85BD3B9387018764
:101C2000839767003E85113B0100B2402244410189
:101C30008280011122CE00102326A4FE2324B4FEAC
:101C40000327C4FE0A0793878193BA979C4381EFC9
:101C50000327C4FE0A0793878193BA97032784FE5C
:101C600098C3854739A80327C4FE0A079387819341
:101C7000BA979C43032784FE6314F700854711A09D
:101C800081473E85724405618280011106CE22CCD7
:101C900000102326A4FE8327C4FE81EB85458567BB
:101CA00013850780EF30401E6DA80327C4FE8547CB
:101CB0006317F70085450545EF3060215DA00327D8
:101CC000C4FE89476317F70085450945EF3020209A
:101CD00049A80327C4FE8D476317F70085451145C2
:101CE000EF30E01EBDA80327C4FE91476317F7003D
:101CF00085452145EF30A01DADA00327C4FE9547C3
:101D00006317F70085454145EF30601C99A803270C
:101D1000C4FE99476318F700854513050002EF30AC
:101D2000001B81A00327C4FE9D476317F70085456C
:101D30000965EF30601535A00327C4FEA14763187D
:101D4000F700854537050800EF30001419A8032770
:101D5000C4FEA5476317F700854537051000EF302F
:101D6000A0120100F240624405618280397106DEF2
:101D700022DC80002326A4FC2324B4FC8545032513
:101D8000C4FC453DAA873E8713062006B5679385A8
:101D900047E13A85EF0070570325C4FCFD35032762
:101DA000C4FC0A0793870196BA97032784FC98C35B
:101DB000032784FC85476315F702FD572314F4FEBF
:101DC00003A74189B7470F0093870724B357F7024A
:101DD000C207C183FD17C207C1832312F4FE05A801
:101DE000032784FC89476314F7029307B012231476
:101DF000F4FE03A741898567938787BBB357F70232
:101E0000C207C183FD17C207C1832312F4FE231545
:101E100004FE231304FE230604FEB5670327C4FC57
:101E20000A079387C7FCBA979C433E87930744FEF3
:101E3000BE853A85EF30601205468545371500406E
:101E4000EF30D02593076004230EF4FCA30E04FCAE
:101E50008547230FF4FC85472320F4FE9307C4FD38
:101E60003E85EF20D02DB5670327C4FC0A07938772
:101E7000C7FCBA979C4385453E85EF30B0160100FC
:101E8000F250625421618280011106CE22CC0010F2
:101E90002326A4FE2324B4FE8327C4FE81EBE1465F
:101EA000014685452545EFE01FBFC9AA0327C4FEAB
:101EB0008947631AF700E14601468545130560022C
:101EC000EFE07FBD65AA0327C4FEC1476319F70091
:101ED000E146014685450945EFE0FFBB45A20327E2
:101EE000C4FEC947631AF700E1460146854513055C
:101EF0005006EFE05FBA59A20327C4FE9307000221
:101F0000631AF700E146014685451305A002EFE09C
:101F10009FB8ADA20327C4FE93072002631AF700FF
:101F2000E146014685451305A004EFE0DFB6B9A2FE
:101F30000327C4FE93074002631AF700E1460146F7
:101F4000854513058006EFE01FB50DAA0327C4FEE3
:101F500093070004631AF700E1460146854513051F
:101F6000A004EFE05FB319AA0327C4FE930720047F
:101F7000631AF700E1460146854513050002EFE0CC
:101F80009FB1EDA80327C4FE93070005631AF7006D
:101F9000E146014685451305C004EFE0DFAFF9A82F
:101FA0000327C4FE93072005631AF700E1460146A4
:101FB000854513058008EFE01FAEC9A00327C4FEC6
:101FC00093070006631AF700E146014685451305AD
:101FD0000004EFE05FAC5DA00327C4FE930720067A
:101FE000631AF700E1460146854513050004EFE05A
:101FF0009FAA69A00327C4FE93070007631AF7008E
:10200000E1460146854513052004EFE0DFA8BDA0A9
:102010000327C4FE930720076319F700E146014632
:1020200085451945EFE03FA791A80327C4FE930714
:102030004007631AF700E146014685451305C008CD
:10204000EFE07FA525A80327C4FE93070008631AC5
:10205000F700E1460146854513054004EFE0BFA3C4
:1020600031A80327C4FE930720086319F700E1464F
:10207000014685451305E008EFE0FFA1032784FE34
:102080008547631AF7009306800401468145294578
:10209000EFE07FA0D5AA032784FE8D47631BF700DE
:1020A000930680040146814513057002EFE0BF9E50
:1020B000E1AA032784FEC547631AF700930680044C
:1020C000014681450D45EFE01F9D7DAA032784FE53
:1020D000CD47631BF7009306800401468145130535
:1020E0006006EFE05F9B4DA2032784FE930710027A
:1020F000631BF70093068004014681451305B00277
:10210000EFE07F9951A2032784FE93073002631BFF
:10211000F70093068004014681451305B004EFE003
:102120009F979DA2032784FE93075002631BF7002D
:10213000930680040146814513059006EFE0BF95A4
:10214000A1A2032784FE93071004631BF7009306E4
:102150008004014681451305B004EFE0DF932DA212
:10216000032784FE93073004631BF7009306800463
:102170000146814513051002EFE0FF9131A20327CC
:1021800084FE93071005631BF70093068004014645
:10219000814513052006EFE01F90FDA0032784FE74
:1021A00093073005631BF7009306800401468145C1
:1021B00013059008EFE03F8EC1A8032784FE930724
:1021C0001006631BF7009306800401468145130542
:1021D0001004EFE05F8C4DA8032784FE93073006C0
:1021E000631BF70093068004014681451305B00880
:1021F000EFE07F8A51A8032784FE93071007631B33
:10220000F700930680040146814513053004EFE092
:102210009F889DA8032784FE93073007631AF70061
:1022200093068004014681451D45EFE0DF86A9A89D
:10223000032784FE93075007631BF700930680046F
:10224000014681451305D008EFE0FF8435A8032738
:1022500084FE93071008631BF70093068004014671
:10226000814513055004EFE01F8339A8032784FE3E
:1022700093073008631AF7009306800401468145EE
:102280001305F008EFE03F810100F2406244056170
:102290008280011106CE22CC00102326A4FEAE8738
:1022A000A305F4FEB5670327C4FE0A07938747FF1B
:1022B000BA979C433E878347B4FE3E8693055052AF
:1022C0003A85EF3030571387C1848327C4FEBA970D
:1022D00083C7070081453E85EF0030308347B4FE59
:1022E00081CF1387C1848327C4FEBA9783C70700B1
:1022F0003E85EF00102B19A81387C1848327C4FEE5
:10230000BA9783C707003E85EF00702B0100F240AB
:10231000624405618280011122CE00102326A4FEB2
:102320002324B4FEB5670327C4FE0A07938747FF3B
:10233000BA979C4383D70700C207C18393F707026C
:102340008DC7B5670327C4FE0A07938747FFBA976F
:102350009C4383D74700C207C18313F7F70F832736
:1023600084FE2380E700854711A081473E857244A3
:1023700005618280797106D622D40018232EA4FC30
:10238000232CB4FC232AC4FC2328D4FC232004FEE1
:10239000232204FE232404FE232604FE854505454E
:1023A000EF20902E832504FD032544FDEFF0DFADE3
:1023B000032744FD8947631CF700032704FD8D476D
:1023C0006317F70085451145EF20002F95A20327DD
:1023D00044FDC947631CF700032704FDCD4763177D
:1023E000F70085452145EF20202D99A2032744FDC4
:1023F000930720026310F702032704FD93073002BE
:10240000631AF7008545B707140013850701EF200D
:10241000A02A39AA032744FD930740026310F7025C
:10242000032704FD93075002631AF7008545B70799
:10243000140013850703EF202028DDA8032744FD9F
:1024400093072004631DF700032704FD930730045E
:102450006317F70085450565EF200026D1A80327FF
:1024600044FD930720056310F702032704FD93073B
:102470003005631AF7008545B7072000138517005C
:10248000EF20802375A0032744FD930720066310E7
:10249000F702032704FD93073006631AF70085450A
:1024A000B717008013850780EF20002151A0032774
:1024B00044FD930720076312F702032704FD9307E7
:1024C0003007631CF700B7070140D44FB70701403E
:1024D00037074000558FD8CFA1A8032744FD9307A5
:1024E00040076312F702032704FD93075007631C9C
:1024F000F700B7070140D44FB70701403707800006
:10250000558FD8CF35A0032744FD930720086311CA
:10251000F702032704FD93073008631BF700B70792
:102520000140D44FB707014037070002558FD8CF7D
:102530008327C4FD91E785451165EF20F01469A854
:102540000327C4FD85476318F7008545370502005A
:10255000EF20F01751A00327C4FD89476318F70047
:10256000854537050400EF209016BDA00327C4FD64
:102570008D476318F700854537050800EF203015B3
:10258000A1A80327C4FD91476318F70085453705C7
:102590001000EF20D01389A00327C4FD95476318CE
:1025A000F700854513050004EF20701235A00327BE
:1025B000C4FD99476318F700854513050008EF200F
:1025C000101119A80327C4FD9D476317F70085451F
:1025D00013050010EF20B00F832784FD2320F4FEA5
:1025E000231204FE231304FE231404FE231604FE08
:1025F000B1472315F4FEB5670327C4FD0A07938787
:1026000047FFBA979C433E87930704FEBE853A85F1
:10261000EF300079B5670327C4FD0A07938747FFAA
:10262000BA979C4385453E85EF30D01A0100B250E1
:10263000225445618280411106C622C40008938558
:1026400081871945EFF03FCD054693858187138536
:102650000198C9230100B240224441018280411106
:1026600006C622C4000803A7C1888947630FF70084
:1026700003A7C1888D476314F700992039A003A7E9
:10268000C18891476313F7004D280100B2402244EE
:1026900041018280411106C622C4000803A7C188F7
:1026A00091476314F700ED2839A003A7C1888D472F
:1026B0006313F7008D280100B2402244410182805B
:1026C000411106C622C4000883C7F1873E8793875D
:1026D000C187BA97BE851145EFF0FFC3AA8781CBAA
:1026E00083C7F187850713F7F70FA38FE18603C729
:1026F000F1878547631AF70003C7C1879307500A1C
:102700006304F700A38F018603C7F1878D47631722
:10271000F700A38F018605472380E1880100B240BE
:10272000224441018280411122C600080547A38C42
:10273000E1860100324441018280411106C622C473
:10274000000883C771883E8793874188BA97BE8502
:102750001145EFF05FBCAA8781CB83C771888507DD
:1027600013F7F70FA383E18803C771888547631ABE
:10277000F70003C741889307500A6304F700A38357
:10278000018803C771888D476317F700A383018809
:1027900005472384E1880100B24022444101828040
:1027A000411122C600080547A384E1880100324494
:1027B00041018280011106CE22CC00102326A4FE06
:1027C0000327C4FE23AAE18811280325C4FE512053
:1027D0000D2D0100F240624405618280411122C644
:1027E0000008B71702409843B71702401367170055
:1027F00098C3B7170240D443B71702403707FFF812
:10280000758FD8C3B71702409443B71702403707F4
:10281000F7FE7D17758F98C3B71702409443B7171B
:1028200002403707FCFF7D17758F98C3B71702402A
:10283000D443B7170240370781FF7D17758FD8C380
:10284000B717024037079F0098C701003244410183
:102850008280797122D60018232EA4FC232604FE40
:10286000232404FEB71702409443B7170240416780
:10287000558F98C3B71702409843B7070200F98FE6
:102880002324F4FE8327C4FE85072326F4FE832732
:1028900084FE99E70327C4FE93070050E31CF7FC6E
:1028A000B71702409843B7070200F98F89C78547D9
:1028B0002324F4FE19A0232404FE032784FE854765
:1028C0006315F71EB72702409843B72702401367E6
:1028D000070198C3B72702409843B7270240719B6E
:1028E00098C3B727024094438327C4FD1387F7FF9B
:1028F000B7376E0193870760B357F70213F7770076
:10290000B7270240558F98C337170240B7170240C8
:102910005843D8C337170240B71702405843D8C3AB
:1029200037170240B71702405843D8C30327C4FDE6
:10293000B7177A0093870720631BF702B717024087
:10294000D843B7170240719BD8C3B7170240D8438A
:10295000B717024013671700D8C30100B71702402A
:10296000DC4313F7C7009147E31AF7FE81A2B717BC
:102970000240D443B71702403707C1FF7D17758F58
:10298000D8C30327C4FDB747950893870740631B47
:10299000F700B7170240D443B71702404167558F7D
:1029A000D8C355A80327C4FDB7172707938707E0A7
:1029B000631CF700B7170240D443B717024037072C
:1029C0003900558FD8C341A80327C4FDB7E7B80520
:1029D00093870780631CF700B7170240D443B717EB
:1029E000024037072900558FD8C3B5A00327C4FD7F
:1029F000B7A74A0493870720631CF700B717024064
:102A0000D443B717024037071D00558FD8C3A1A084
:102A10000327C4FDB777DC02938707C0631CF70068
:102A2000B7170240D443B717024037071100558F3C
:102A3000D8C315A00327C4FDB7376E01938707607D
:102A4000631BF700B7170240D443B717024037079C
:102A50000500558FD8C3B71702409443B7170240FB
:102A600037070001558F98C30100B71702409843FC
:102A7000B7070002F98FF5DBB7170240D843B71745
:102A80000240719BD8C3B7170240D843B717024022
:102A900013672700D8C30100B7170240DC4313F7C0
:102AA000C700A147E31AF7FE11A001A03254456107
:102AB0008280411122C60008010001003244410118
:102AC0008280411106C622C400088D460946F1677E
:102AD000938507200145EFF0FF8985450145EFF01B
:102AE0004FFB0547238CE188CD464946F167938526
:102AF00007200545EFF01F8885450545EFF06FF984
:102B00000100B240224441018280011106CE22CC54
:102B10000010AA872324B4FE2322C4FEA307F4FED8
:102B20008347F4FE85E383C7818991CB032644FE66
:102B3000832584FEB567138507E5EF70306A0126AB
:102B40008D3FFDBF0100F2406244056182807971D2
:102B500006D622D40018232EA4FC232CB4FC232A4E
:102B6000C4FC232604FE99A00100B56783A747FF94
:102B7000930500043E85EF30605DAA87FDD7B567F9
:102B800083A747FFBE86832784FD13871700232C66
:102B9000E4FC83870700C207C183BE853685EF301A
:102BA000A0558327C4FE85072326F4FE0327C4FE11
:102BB000832744FDE34AF7FA832744FD3E85B2505C
:102BC000225445618280011122CE00102326A4FEEA
:102BD0002324B4FE8327C4FED843832784FE3E9774
:102BE0008327C4FED8C319A88327C4FED8438327EC
:102BF000C4FE9C4B1D8F8327C4FED8C38327C4FE0D
:102C0000984B8327C4FEDC43E3F0E7FE01007244E7
:102C100005618280797106D622D40018232EA4FC87
:102C2000232CB4FC232AC4FC8327C4FDDC470327E0
:102C300044FD637BF70C21248327C4FD984B832735
:102C4000C4FDDC43B307F7402326F4FE032744FD0D
:102C50008327C4FE63FBE7068327C4FD98438327CD
:102C6000C4FDDC43BA970326C4FE832584FD3E855C
:102C7000EF7080118325C4FE0325C4FDA937032707
:102C800084FD8327C4FEBA97232CF4FC8327C4FD5C
:102C900098438327C4FDDC43B306F700032744FDB4
:102CA0008327C4FEB307F7403E86832584FD36851F
:102CB000EF70800D032744FD8327C4FEB307F74060
:102CC000BE850325C4FD013725A08327C4FD984395
:102CD0008327C4FDDC43BA97032644FD832584FD86
:102CE0003E85EF70600A832544FD0325C4FDE13D68
:102CF0008327C4FDD847832744FD1D8F8327C4FD48
:102D0000D8C73922814711A089473E85B250225445
:102D100045618280011122CE00102326A4FE832764
:102D2000C4FEFD8B0547B316F70037E700E08327A5
:102D3000C4FE9583938707048A07BA9794C301005A
:102D4000724405618280011122CE00102326A4FE68
:102D50008327C4FEFD8B0547B316F70037E700E075
:102D60008327C4FE9583938707068A07BA9794C37F
:102D70000100724405618280011122CE00102326D9
:102D8000A4FEAE87A305F4FE37E700E08327C4FE68
:102D9000BA970347B4FE2380E740010072440561FF
:102DA0008280011106CE22CC00102326A4FE03252A
:102DB000C4FE8D370100F24062440561828001113A
:102DC00006CE22CC00102326A4FE0325C4FEA53F78
:102DD0000100F240624405618280011106CE22CCDE
:102DE00000102326A4FEAE87A305F4FE8347B4FE9D
:102DF000BE850325C4FE49370100F24062440561E7
:102E00008280411122C600080100324441018280C3
:102E1000411106C622C4000883A7C18999C783A7A8
:102E2000C1891387F7FF23AEE18883A7C18999E39E
:102E3000EFD06FBD0100B2402244410182804111B8
:102E400006C622C4000883A7C18999E3EFD04FBB0F
:102E500083A7C1891387170023AEE1880100B24020
:102E6000224441018280411122C60008930550523C
:102E7000B747014013850780EF30A031AA879DC373
:102E8000EF00C07F93055052B7470140138507807C
:102E9000EF30404093055052B747014013850780FB
:102EA000EF30403F010032444101730020304111B6
:102EB00022C6000893055052B747004013850740CB
:102EC000EF30202D93055052B7470040138507403F
:102ED000EF30403C01003244410173002030411189
:102EE00022C6000893055052B7570040138507804B
:102EF000EF30202AAA8789CB93055052B75700405C
:102F000013850780EF30003901003244410173001E
:102F10002030411122C6000893055052B757004097
:102F2000138507C0EF30E026AA8789CB930550525E
:102F3000B7570040138507C0EF30C0350100324459
:102F4000410173002030411122C600089305505200
:102F500037550040EF30E023AA8789CBEFF02FF000
:102F60009305505237550040EF30C03201003244D3
:102F7000410173002030411122C6000893055052D0
:102F8000B727004013850780EF30A020AA8789CBA0
:102F900093055052B727004013850780EF30802FEC
:102FA00001003244410173002030411122C6000863
:102FB00093055052B7270040138507C0EF30601DBE
:102FC000AA878DC703A7018985476309F70003A76F
:102FD000018989476314F700EFF0EFE5930550523C
:102FE000B7270040138507C0EF30C02A01003244E4
:102FF000410173002030411122C600089305505250
:1030000037250040EF30E018AA8799C79305505242
:1030100037250040EF3000280100324441017300A1
:103020002030411122C60008B707055083C70701A9
:1030300093F7F70F918B85C3EFF0CFE5B7070550F6
:1030400083C7070113F7F70FB70705506D9B137779
:10305000F70F2388E700010032444101730020305C
:10306000411122C600080545EF1080372A878547A1
:103070006315F7000545EF10003C010032444101A3
:1030800073002030411122C600080945EF10403579
:103090002A8785476315F7000945EF10C0390100FD
:1030A0003244410173002030411122C6000811450D
:1030B000EF1000332A8785476311F7028397818ACF
:1030C000C207C1838507C207C183139707014187E0
:1030D0002394E18A1145EF1000360100324441018A
:1030E00073002030411122C600082145EF10402F07
:1030F0002A8785476315F7002145EF10C03301008B
:103100003244410173002030411122C6000841457C
:10311000EF10002D2A8785476311F7028397A18A54
:10312000C207C1838507C207C1831397070141877F
:103130002395E18A4145EF100030010032444101FE
:1031400073002030411122C6000813050002EF1061
:1031500020292A8785476316F70013050002EF1020
:10316000802D13050004EF10A0272A8785476316DA
:10317000F70013050004EF10002C13050008EF10F2
:1031800020262A8785476316F70013050008EF10ED
:10319000802A13050010EF10A0242A8785476316A4
:1031A000F70013050010EF10002913050020EF10A1
:1031B00020232A8785476316F70013050020EF10A8
:1031C000802701003244410173002030411122C6A2
:1031D000000813050040EF10A0202A878547631FD1
:1031E000F7021305A008EFD01F87AA8789C70547F4
:1031F0002396E18A19A02396018A0395418B839532
:10320000618B0396818B8396C18A8397A18B3E87BE
:10321000EF30F06813050040EF10E021856713855B
:103220000780EF10E01B2A8785476311F704130519
:10323000B008EFD05F82AA8789C709472396E18A41
:1032400021A005472396E18A0395418B8395618BE5
:103250000396818B8396C18A8397A18B3E87EF303B
:103260001064856713850780EF10E01C0565EF107B
:1032700020172A878547631FF7021305C008EFD080
:103280008FFDAA8789C711472396E18A0DA00D47B4
:103290002396E18A0395418B8395618B0396818BFD
:1032A0008396C18A8397A18B3E87EF30505F056577
:1032B000EF1060180965EF10A0122A878547631F79
:1032C000F7021305D008EFD00FF9AA8789C70D4779
:1032D0002396E18A21A009472396E18A0395418B31
:1032E0008395618B0396818B8396C18A8397A18B8B
:1032F0003E87EF30D05A0965EF10E0131165EF10EB
:10330000200E2A8785476315F7001165EF10A0127C
:103310002165EF10E00C2A8785476315F7002165CA
:10332000EF1060110100324441017300203041115F
:1033300022C600088545B7370140138507C0EF2036
:10334000501CAA8781CB8545B7370140138507C03C
:10335000EF2030220100324441017300203041113E
:1033600022C60008854537050040EF209019AA873E
:1033700091C7854537050040EF20B01F010032445A
:10338000410173002030411122C600088545B7076E
:10339000004013850740EF20D016AA8781CB8545D2
:1033A000B707004013850740EF20B01C01003244EE
:1033B000410173002030411122C600088545B7172E
:1033C000004013850780EF20D013AA8781CB854565
:1033D000B717004013850780EF20B0190100324471
:1033E000410173002030411122C600088545B717FE
:1033F0000040138507C0EF20D010AA8781CB8545F8
:10340000B7170040138507C0EF20B0160100324403
:10341000410173002030411122C60008854537154F
:103420000040EF20100EAA8781CBEFE02FF08545FA
:1034300037150040EF20F0130100324441017300C2
:103440002030411122C600088545B717004013857A
:103450000740EF20100BAA8781CB8545B7170040A6
:1034600013850740EF20F010010032444101730042
:103470002030411122C600088545B7370140138529
:103480000740EF201008AA8781CB8545B737014058
:1034900013850740EF20F00D010032444101730015
:1034A0002030411122C6000883C7018AE207E18764
:1034B00063CB070E8545B7570140138507C0EF2042
:1034C0005004AA87A9C383C7018A93F7070485CF4D
:1034D00083C7018A13F7F7039307F003631EF7000E
:1034E00083C7018A93E707F813F7F70F2380E18A70
:1034F0007D5723A2E18A01A883C7018A850713F7B4
:10350000F70F2380E18A8945B7570140138507C02B
:10351000EF20207FAA87C1CB83C7018A93F70704D6
:103520009DCB83C7018A93E707F813F7F70F238032
:10353000E18AB7570140138507C0EF20A07AAA8718
:103540003E8723A2E18A8145B7570140138507C012
:10355000EF20407289A82380018A23A2018A83C7B1
:10356000018A93E7070413F7F70F2380E18A814567
:10357000B7570140138507C0EF20C0268145B757D4
:103580000140138507C0EF20A0738945B75701405C
:10359000138507C0EF20006E8545B757014013859E
:1035A00007C0EF2020248D45B7570140138507C081
:1035B000EF20207C01003244410173002030411192
:1035C00022C60008854537550140EF208073AA8741
:1035D00091C7854537550140EF20A079010032445D
:1035E000410173002030411122C60008010032441D
:1035F000410173002030411122C60008010032440D
:10360000410173002030411106C622C40008EFF0CA
:103610001F83B747950813850740EFF0AF99EFF088
:103620004FCA1145EFC0BFF1EF40C01B85451305E0
:103630005003EFF08FFAEF4060159305803E1305BD
:103640002003EFE08FA089451545EFE02FF2EFD082
:103650002FB2EF30507CEFF0AFFBEF30B078AA879D
:103660003E87239DE18A8397C18B91E3B12803971D
:10367000C18B8547E313F7FEFD22C5B7411106C68E
:1036800022C4000803A7018B9307F00763F4E70047
:1036900023A8018AB747014013850780EF20B0288F
:1036A000AA873E8683A7018B9386170023A8D18A19
:1036B0001377F60F93864199B6972380E7000100B0
:1036C000B240224441018280011106CE22CC4ACA76
:1036D0004EC852C656C400100397C18A894763DD9D
:1036E000E7028397E18B8DEB854513050006EFD04C
:1036F0004FAF0547239AE18A0547239FE18A039547
:10370000418B8395618B0396818B8396C18A8397C6
:10371000A18B3E87EF30B0180397418B8547631527
:10372000F70681451305B004EFD0AFAB239A018AA9
:103730000547239BE18A0395418B8395618B039613
:10374000818B8397A18B3E878D46EF30501503A761
:1037500041898967938707F43357F7029307007D00
:10376000B307F7023E8A814A5285D685EFC03FEB08
:103770000395418B8395618B0396818B8397A18BF6
:103780003E878D46EF30B0110397618B85476314F8
:10379000F700EF40600A0397818B8547631CF70AA7
:1037A00081451305A004EFD0CFA385451305000480
:1037B000EFD02FA30397418C9307B00363D3E704A3
:1037C00085451305A004EFD0CFA181451305000462
:1037D000EFD02FA1814513050006EFD08FA005473C
:1037E000239EE18A239C018A0395418B8395618BFB
:1037F0000396818B8397A18B3E878D46EF30300AED
:1038000091A803A741898967938707F43357F70283
:1038100093074006B307F7023E8981494A85CE8562
:10382000EFC0FFDF8397418CC207C1838507C207C2
:10383000C1831397070141872392E18C0395418B44
:103840008395618B0396818B8397A18B3E878D46F1
:10385000EF30F0040100F24062445249C249324A5A
:10386000A24A05618280011106CE22CC4ACA4EC806
:1038700052C656C400108397C18A9DEB8397018C72
:1038800085EB854513050006EFD0AF950547239AD4
:10389000E18A0395418B8395618B0396818B839796
:1038A000A18B3E878146EF30807F05472390E18CD6
:1038B0000397418B85476319F70481451305C004BD
:1038C000EFD02F92239A018A0547239BE18A03A711
:1038D00041898967938707F43357F7029307007D7F
:1038E000B307F7023E8A814A5285D685EFC03FD39F
:1038F0000395418B8395618B0396818B8397A18B75
:103900003E878146EF30A0790397618B854763142A
:10391000F700EF30907D0397818B8547631BF70A93
:1039200081451305A004EFD0CF8B85451305000416
:10393000EFD02F8B0397218C9307B00363D2E7045A
:1039400085451305A004EFD0CF89814513050004F8
:10395000EFD02F89814513050006EFD08F88239E75
:10396000018A239C018A0395418B8395618B039681
:10397000818B8397A18B3E878146EF30407291A85F
:1039800003A741898967938707F43357F7029307A1
:103990004006B307F7023E8981494A85CE85EFC0CC
:1039A0001FC88397218CC207C1838507C207C183C3
:1039B0001397070141872391E18C0395418B8395F0
:1039C000618B0396818B8397A18B3E878146EF3075
:1039D000006D0100F24062445249C249324AA24A93
:1039E0000561828001A001A001A001A001A001A0A9
:1039F00001A001A001A001A001A001A001A001A0BF
:103A000001A001A001A001A001A001A001A001A0AE
:103A100001A001A001A001A001A001A001A001A09E
:103A200001A001A001A001A001A001A001A001A08E
:103A300001A001A001A001A001A001A001A001A07E
:103A400001A001A001A001A001A001A001A001A06E
:103A500001A001A001A001A001A001A001A001A05E
:103A600001A001A001A001A001A001A001A001A04E
:103A700001A001A001A001A001A001A001A001A03E
:103A800001A001A001A001A001A001A001A001A02E
:103A900001A001A001A001A001A001A001A001A01E
:103AA00001A07390123497D1FF1F9381A1F817C121
:103AB00000201301215517A500001305A5BA97C5CD
:103AC000FF1F938525541386018663FAC500832260
:103AD000050023A0550011059105E3EAC5FE1385F5
:103AE0000186938581A16377B50023200500110528
:103AF000E36DB5FEFD42739002BCFD4273904280BF
:103B0000B78200009382828873A0023097C2FFFFC1
:103B10009382C25293E2320073905230EF00400120
:103B200097020000938262AE7390123473002030CB
:103B3000411106C622C40008B71702409843B717C0
:103B400002401367170098C3B7170240D443B71752
:103B500002403707FFF8758FD8C3B7170240944368
:103B6000B71702403707F7FE7D17758F98C3B71751
:103B700002409443B71702403707FCFF7D17758F4B
:103B800098C3B7170240D443B7170240370781FFE5
:103B90007D17758FD8C3B717024037079F0098C7A6
:103BA00031200100B240224441018280411106C609
:103BB00022C4000831200100B24022444101828029
:103BC000011122CE0010232604FE232404FEB71781
:103BD00002409443B71702404167558F98C3B71707
:103BE00002409843B7070200F98F2324F4FE83278D
:103BF000C4FE85072326F4FE832784FE99E7032766
:103C0000C4FE93070050E31CF7FCB717024098432B
:103C1000B7070200F98F89C785472324F4FE19A04E
:103C2000232404FE032784FE85476318F70EB72775
:103C300002409843B72702401367070198C3B7278C
:103C400002409843B7270240719B98C3B7270240B0
:103C50009843B72702401367270098C337170240DD
:103C6000B71702405843D8C337170240B71702406E
:103C70005843D8C337170240B71702405843D8C338
:103C8000B7170240D443B71702403707C1FF7D176B
:103C9000758FD8C3B7F7FF1F9387C7709843916795
:103CA000F98F99EBB7170240D443B7170240370793
:103CB0003D00558FD8C309A8B7170240D443B717A2
:103CC00002404167558FD8C3B71702409443B717D6
:103CD000024037070001558F98C30100B717024013
:103CE0009843B7070002F98FF5DBB7170240D843B6
:103CF000B7170240719BD8C3B7170240D843B71714
:103D0000024013672700D8C30100B7170240DC4305
:103D100013F7C700A147E31AF7FE010072440561DB
:103D20008280011106CE22CC00102326A4FE032798
:103D3000C4FEB727014093870740631DF700854500
:103D400013050020EF10001D814513050020EF1022
:103D5000601C1DA00327C4FEB7370140938707806E
:103D6000631CF700854513050040EF10A01A81453C
:103D700013050040EF10001A0100F2406244056193
:103D80008280797122D60018232EA4FC232CB4FC47
:103D9000232604FEA30504FE8327C4FDDC4323265B
:103DA000F4FE0327C4FEB707F1E09387F7EFF98F1E
:103DB0002326F4FE832784FD9843832784FD9C4FAC
:103DC0005D8F832784FDDC4F5D8F832784FDDC437B
:103DD000A207D98F0327C4FED98F2326F4FE832799
:103DE000C4FD0327C4FED8C38327C4FD9C472326F4
:103DF000F4FE0327C4FEB7F7F1FF9387D77FF98F4F
:103E00002326F4FE832784FD984B832784FDDC471B
:103E10005D8F832784FD9C478607D98F0327C4FEC7
:103E2000D98F2326F4FE8327C4FD0327C4FE98C739
:103E30008327C4FDDC572326F4FE0327C4FEB707FF
:103E400010FFFD17F98F2326F4FE832784FD83C717
:103E50004701FD1713F7F70F8347B4FED98FA3056A
:103E6000F4FE8347B4FED2070327C4FED98F23266E
:103E7000F4FE8327C4FD0327C4FED8D701003254C3
:103E800045618280011122CE00102326A4FE232446
:103E9000B4FE832784FE91CB8327C4FE9C4713E79F
:103EA00017008327C4FE98C709A88327C4FE9C4730
:103EB00013F7E7FF8327C4FE98C70100724405612A
:103EC0008280011122CE00102326A4FE8327C4FE87
:103ED0009C4713E787008327C4FE98C701007244FC
:103EE00005618280797122D60018232EA4FC232636
:103EF00004FE8327C4FD9C47A18B89C785472326E1
:103F0000F4FE19A0232604FE8327C4FE3E85325406
:103F100045618280011122CE00102326A4FE832752
:103F2000C4FE9C4713E747008327C4FE98C70100DF
:103F3000724405618280797122D60018232EA4FC78
:103F4000232604FE8327C4FD9C47918B89C78547A0
:103F50002326F4FE19A0232604FE8327C4FE3E85F3
:103F6000325445618280011122CE00102326A4FE26
:103F70002324B4FE832784FE99CB8327C4FE98476D
:103F8000B70750005D8F8327C4FE98C719A8832701
:103F9000C4FE9847B707B0FFFD177D8F8327C4FE87
:103FA00098C70100724405618280797122D6001899
:103FB000232EA4FCAE873687A30DF4FCB287230D15
:103FC000F4FCBA87A30CF4FC232604FE232404FE8D
:103FD0000347B4FDA54763F6E7068327C4FDDC4726
:103FE0002326F4FE8347B4FD138767FFBA8786074D
:103FF000BA971D47B317F7002324F4FE832784FEE6
:1040000093C7F7FF0327C4FEF98F2326F4FE8346E8
:1040100094FD8347B4FD138767FFBA878607BA9775
:10402000B397F6002324F4FE0327C4FE832784FEFF
:10403000D98F2326F4FE8327C4FD0327C4FED8C7E7
:1040400085A08327C4FD9C4B2326F4FE0347B4FDC3
:10405000BA878607BA971D47B317F7002324F4FEE3
:10406000832784FE93C7F7FF0327C4FEF98F232617
:10407000F4FE834694FD0347B4FDBA878607BA97DA
:10408000B397F6002324F4FE0327C4FE832784FE9F
:10409000D98F2326F4FE8327C4FD0327C4FE98CBC3
:1040A0000347A4FD994763E6E7068327C4FDDC5B6D
:1040B0002326F4FE8347A4FD1387F7FFBA878A07F8
:1040C000BA977D47B317F7002324F4FE832784FEB5
:1040D00093C7F7FF0327C4FEF98F2326F4FE834618
:1040E000B4FD8347A4FD1387F7FFBA878A07BA9701
:1040F000B397F6002324F4FE0327C4FE832784FE2F
:10410000D98F2326F4FE8327C4FD0327C4FED8DB02
:10411000E9A80347A4FDB14763E6E7068327C4FD8A
:104120009C5B2326F4FE8347A4FD138797FFBA8781
:104130008A07BA977D47B317F7002324F4FE832735
:1041400084FE93C7F7FF0327C4FEF98F2326F4FEEE
:104150008346B4FD8347A4FD138797FFBA878A0778
:10416000BA97B397F6002324F4FE0327C4FE8327EF
:1041700084FED98F2326F4FE8327C4FD0327C4FEC3
:1041800098DBA5A08327C4FDDC572326F4FE8347D4
:10419000A4FD138737FFBA878A07BA977D47B317FD
:1041A000F7002324F4FE832784FE93C7F7FF032739
:1041B000C4FEF98F2326F4FE8346B4FD8347A4FD95
:1041C000138737FFBA878A07BA97B397F600232475
:1041D000F4FE0327C4FE832784FED98F2326F4FE32
:1041E0008327C4FD0327C4FED8D70100325445619C
:1041F0008280797122D60018232EA4FCAE87A30DED
:10420000F4FC232604FE8327C4FD98438347B4FDB2
:10421000F98F89C785472326F4FE19A0232604FEBB
:104220008327C4FE3E85325445618280011122CE2F
:1042300000102326A4FE2324B4FE832784FE99CBFA
:104240008327C4FED843B70700045D8F8327C4FECD
:10425000D8C319A88327C4FED843B70700FCFD17AD
:104260007D8F8327C4FED8C301007244056182801C
:10427000797122D60018232EA4FC232604FEB7074A
:104280000140938707402326F4FE8327C4FDDC47C3
:1042900063800712B7070140938707409443832741
:1042A000C4FD9C4313C7F7FFB7070140938707403E
:1042B000758F98C3B707014093870740D44383277E
:1042C000C4FD9C4313C7F7FFB7070140938707401E
:1042D000758FD8C38327C4FDDC430327C4FEBA9778
:1042E0002326F4FE8327C4FE94438327C4FD98430A
:1042F0008327C4FE558F98C3B707014093870740B3
:1043000094478327C4FD9C4313C7F7FFB7070140B9
:1043100093870740758F98C7B70701409387074079
:10432000D4478327C4FD9C4313C7F7FFB707014059
:1043300093870740758FD8C78327C4FD9847C14727
:10434000631FF702B707014093870740944783270D
:10435000C4FD9843B707014093870740558F98C71E
:10436000B707014093870740D4478327C4FD98438C
:10437000B707014093870740558FD8C7B1A8B70743
:104380000140938707402326F4FE8327C4FD9C4702
:104390000327C4FEBA972326F4FE8327C4FE944362
:1043A0008327C4FD98438327C4FE558F98C32DA04F
:1043B0008327C4FDDC430327C4FEBA972326F4FEFB
:1043C0008327C4FE94438327C4FD9C4313C7F7FF90
:1043D0008327C4FE758F98C30100325445618280E3
:1043E000797122D60018232EA4FC232604FE232450
:1043F00004FEB7070140938707409C430327C4FD91
:10440000F98F2324F4FEB707014093870740D84B68
:104410008327C4FDF98F81CB832784FE89C7854715
:104420002326F4FE19A0232604FE8327C4FE3E851E
:10443000325445618280011122CE00102326A4FE51
:10444000B7070140938707400327C4FED8CB01007C
:10445000724405618280397122DE80002326A4FC2B
:104460002324B4FC232604FE232004FE232404FE7C
:10447000232E04FC232204FE232C04FC832784FC2B
:104480009C47BD8B2326F4FE832784FC9C47C18B6D
:1044900089CB832784FCDC430327C4FED98F2326E2
:1044A000F4FE832784FC83D7070093F7F70FF1CF3F
:1044B0008327C4FC9C432322F4FE232404FE65A826
:1044C000832784FE0547B317F700232EF4FC8327C8
:1044D00084FC83D707003E878327C4FDF98F232000
:1044E000F4FE032704FE8327C4FD6311F708832726
:1044F00084FE8A07232EF4FC8327C4FD3D47B317AF
:10450000F700232CF4FC832784FD93C7F7FF0327D0
:1045100044FEF98F2322F4FE8327C4FD0327C4FE43
:10452000B317F700032744FED98F2322F4FE832715
:1045300084FC984793078002631BF700832784FE5F
:1045400005473317F7008327C4FCD8CB05A0832782
:1045500084FC984793078004631AF700832784FE3E
:1045600005473317F7008327C4FC98CB832784FEC5
:1045700085072324F4FE032784FE9D47E3F2E7F436
:104580008327C4FC032744FE98C3832784FC03D7F6
:1045900007009307F00F63F1E70E8327C4FCDC43A9
:1045A0002322F4FE232404FE75A8832784FEA1079A
:1045B0000547B317F700232EF4FC832784FC83D729
:1045C00007003E878327C4FDF98F2320F4FE0327CD
:1045D00004FE8327C4FD6312F708832784FE8A073D
:1045E000232EF4FC8327C4FD3D47B317F700232C8B
:1045F000F4FC832784FD93C7F7FF032744FEF98F5C
:104600002322F4FE8327C4FD0327C4FEB317F7005B
:10461000032744FED98F2322F4FE832784FC984786
:1046200093078002631BF700832784FEA1070547D9
:104630003317F7008327C4FCD8CB832784FC984723
:1046400093078004631BF700832784FEA1070547B7
:104650003317F7008327C4FC98CB832784FE850794
:104660002324F4FE032784FE9D47E3F0E7F4832729
:10467000C4FC032744FED8C3010072542161828028
:10468000011122CE00102326A4FEAE872322C4FEF1
:104690002315F4FE832744FE99C70357A4FE8327FE
:1046A000C4FE98CB31A00357A4FE8327C4FED8CB09
:1046B0000100724405618280797122D60018232E90
:1046C000A4FC232CB4FC232404FE232204FE232672
:1046D00004FE232004FE8327C4FD63D80700B70728
:1046E0000140DC4F2326F4FE31A0B7070140DC4334
:1046F0002326F4FE8327C4FDC183BD8B2320F4FE53
:104700000327C4FDC167FD17F98F2324F4FE032797
:10471000C4FDB70730007D8FB70730006315F7027F
:104720000327C4FEB70700F1FD17F98F2326F4FE17
:10473000B7070140D443B7070140370700F17D17A1
:10474000758FD8C3ADA00327C4FDB7071000F98F3C
:104750008DCB832704FE0D47B317F7002322F4FE09
:10476000832744FE93C7F7FF0327C4FEF98F232650
:10477000F4FE0327C4FEB707000FD98F2326F4FEEB
:104780003DA08327C4FDD5839207032784FEB3177A
:10479000F70093C7F7FF0327C4FEF98F2326F4FE23
:1047A0000327C4FEB707000FD98F2326F4FE832703
:1047B00084FD91CF8327C4FDD5839207032784FE10
:1047C000B317F7000327C4FED98F2326F4FE8327EF
:1047D000C4FD63D80700B70701400327C4FED8CF44
:1047E00031A0B70701400327C4FED8C301003254EB
:1047F00045618280797122D60018AA872E87A30F7F
:10480000F4FCBA87230FF4FC232604FE8347E4FD5F
:104810008D8B8A073D47B317F7002326F4FE370731
:1048200001408347E4FD898393F7F70F8A07BA971E
:1048300098478327C4FE93C7F7FFB7060140034696
:10484000E4FD09821376F60F7D8F93172600B69745
:1048500098C7370701408347E4FD898393F7F70F33
:104860008A07BA9798478346F4FD8347E4FD8D8B0A
:104870008A07B397F600B70601400346E4FD0982B4
:104880001376F60F5D8F93172600B69798C7010031
:10489000325445618280011122CE00102326A4FEED
:1048A0008327C4FEFD8B0547B316F70037E700E00A
:1048B0008327C4FE9583938707048A07BA9794C316
:1048C0000100724405618280011122CE001023266E
:1048D000A4FE8327C4FEFD8B0547B316F70037E718
:1048E00000E08327C4FE9583938707068A07BA975B
:1048F00094C30100724405618280011122CE001030
:104900002326A4FEAE87A305F4FE37E700E0832745
:10491000C4FEBA970347B4FE2380E7400100724407
:1049200005618280011122CE00102326A4FE0327F8
:10493000C4FE23A4E18C0100724405618280797178
:1049400006D622D40018232EA4FCA30704FE83A7B6
:10495000818C95E38327C4FD83C707003E878327A7
:10496000C4FD83C72700920793F7F70FBE853A85EA
:10497000EFF0BFF8D1AA03A7818C85476311F70632
:104980008327C4FD03C7170085476319F7028327F0
:10499000C4FD83C707003E878327C4FD83C7270064
:1049A0009207E207E18793E707F8E207E18793F7C9
:1049B000F70FBE853A85EFF05FF479A28327C4FD37
:1049C00083C707003E878327C4FD83C7270092075C
:1049D00093F7F70FBE853A85EFF03FF2B5A203A734
:1049E000818C8947631DF7088327C4FD03C717001F
:1049F000854763EFE7028327C4FD03C727008327AA
:104A0000C4FD83C717008A0793F7F70FBA97A30768
:104A1000F4FE8327C4FD83C707003E878347F4FE67
:104A2000920793F7F70FBE853A85EFF01FED29AA9D
:104A30008327C4FD03C727008327C4FD83C717004E
:104A40009387E70393F7F70F8A0793F7F70FBA9760
:104A5000A307F4FE8327C4FD83C707003E8783476F
:104A6000F4FE9207E207E18793E707F8E207E187A0
:104A700093F7F70FBE853A85EFF03FE8F1A003A763
:104A8000818C8D47631DF7088327C4FD03C717007A
:104A90008D4763EFE7028327C4FD03C72700832701
:104AA000C4FD83C71700860793F7F70FBA97A307CC
:104AB000F4FE8327C4FD83C707003E878347F4FEC7
:104AC000920793F7F70FBE853A85EFF01FE3ADA885
:104AD0008327C4FD03C727008327C4FD83C71700AE
:104AE0009387C70793F7F70F860793F7F70FBA97E0
:104AF000A307F4FE8327C4FD83C707003E878347CF
:104B0000F4FE9207E207E18793E707F8E207E187FF
:104B100093F7F70FBE853A85EFF03FDE35A003A788
:104B2000818C91476312F7028327C4FD83C7070076
:104B30003E878327C4FD83C71700920793F7F70FBB
:104B4000BE853A85EFF07FDB8327C4FDDC4389CB4C
:104B50008327C4FD83C707003E85EFF0DFD301A89C
:104B60008327C4FD83C707003E85EFF0FFD5010012
:104B7000B250225445618280797122D60018232ECA
:104B8000A4FC232604FEB7170240DC432326F4FED0
:104B90000327C4FED177FD17F98F2326F4FE0327E0
:104BA000C4FE8327C4FDD98F2326F4FEB717024025
:104BB0000327C4FED8C30100325445618280397195
:104BC00022DE80002326A4FC232204FE232604FEEA
:104BD000232004FE232E04FC232404FEB7170240E6
:104BE000DC43B18B2322F4FE032744FE9147630389
:104BF000F702032744FEA1476306F702832744FE1A
:104C0000639907148327C4FC37177A00130707201A
:104C100098C389AA8327C4FC37177A001307072093
:104C200098C389A2B7170240D843B7073C00F98F51
:104C30002326F4FEB7170240D843C167F98F23201B
:104C4000F4FE8327C4FEC98389072326F4FEB7F741
:104C5000FF1F9387C77098439167F98F91EB0327E4
:104C6000C4FEC5476319F704C9472326F4FEA1A073
:104C70000327C4FE89476315F700C9472326F4FEBE
:104C80000327C4FEBD476318F700B5472326F4FE8B
:104C900085472324F4FE0327C4FEC1476315F700AC
:104CA000BD472326F4FE0327C4FEC5476315F7005E
:104CB000C1472326F4FE832704FEA1E3B747024041
:104CC000938707809C43C18B89CF0327C4FEB71706
:104CD0007A00938707203307F7028327C4FC98C321
:104CE00099A80327C4FEB7173D00938707903307A1
:104CF000F7028327C4FC98C33DA8B7170240D843E6
:104D0000B7070200F98F89CF0327C4FEB7173D000C
:104D1000938707903307F7028327C4FC98C321A821
:104D20000327C4FEB7177A00938707203307F702DB
:104D30008327C4FC98C3032784FE85476313F702C7
:104D40008327C4FC9C4313D717008327C4FC98C354
:104D500009A88327C4FC37177A001307072098C3D4
:104D600011A00100B7170240DC4393F7070F23227D
:104D7000F4FE832744FE91832322F4FEB70700202C
:104D80001387C700832744FEBA9783C7070093F7AA
:104D9000F70F232EF4FC8327C4FC98438327C4FD1C
:104DA0003357F7008327C4FCD8C3B7170240DC434E
:104DB00093F707702322F4FE832744FEA183232266
:104DC000F4FEB70700201387C700832744FEBA9775
:104DD00083C7070093F7F70F232EF4FC8327C4FC47
:104DE000D8438327C4FD3357F7008327C4FC98C7F3
:104DF000B7170240D843916793870780F98F232222
:104E0000F4FE832744FEAD832322F4FEB70700207F
:104E10001387C700832744FEBA9783C7070093F719
:104E2000F70F232EF4FC8327C4FCD8438327C4FD4B
:104E30003357F7008327C4FCD8C7B7170240D843BD
:104E4000B167F98F2322F4FE832744FEB98323221E
:104E5000F4FEB707002013874723832744FEBA9741
:104E600083C7070093F7F70F232EF4FC8327C4FCB6
:104E7000D8478327C4FD3357F7028327C4FC98CB58
:104E80000100725421618280011122CE001023267C
:104E9000A4FE2324B4FE832784FE99CBB7170240D7
:104EA000944FB71702400327C4FE558F98CF21A80F
:104EB000B7170240944F8327C4FE13C7F7FFB717F5
:104EC0000240758F98CF0100724405618280011104
:104ED00022CE00102326A4FE2324B4FE832784FEC2
:104EE00099CBB7170240D44FB71702400327C4FE2F
:104EF000558FD8CF21A8B7170240D44F8327C4FEBF
:104F000013C7F7FFB7170240758FD8CF010072445F
:104F100005618280011122CE00102326A4FE2324E5
:104F2000B4FE832784FE99CBB7170240D447B71746
:104F300002400327C4FE558FD8C721A8B7170240E7
:104F4000D4478327C4FE13C7F7FFB7170240758FF6
:104F5000D8C70100724405618280797122D6001899
:104F6000232EA4FC232CB4FC231704FE8327C4FDAA
:104F700083D707002317F4FE0327C4FDB73701408A
:104F8000938707C06306F7060327C4FDB7070040F1
:104F90006300F7060327C4FDB70700409387074067
:104FA0006308F7040327C4FDB71700409387078001
:104FB0006300F7040327C4FDB7170040938707C0B9
:104FC0006308F7020327C4FDB73701409387074002
:104FD0006300F7020327C4FDB7570140938707C05A
:104FE0006308F7000327C4FDB75701406311F702B8
:104FF0008357E4FE93F7F7F82317F4FE832784FD25
:1050000003D727008357E4FED98F2317F4FE032725
:10501000C4FDB71700406309F7020327C4FDB717A3
:105020000040938707406301F7028357E4FE93F73C
:10503000F7CF2317F4FE832784FD03D76700835738
:10504000E4FED98F2317F4FE8327C4FD0357E4FE43
:105050002390E700832784FD03D747008327C4FDFF
:105060002396E702832784FD03D707008327C4FD27
:105070002394E7020327C4FDB7370140938707C095
:105080006308F7020327C4FDB73701409387074041
:105090006300F7020327C4FDB7570140938707C099
:1050A0006308F7000327C4FDB7570140631DF700ED
:1050B000832784FD83C787001397070141838327D4
:1050C000C4FD2398E7028327C4FD0547239AE70020
:1050D0000100325445618280797122D60018232E56
:1050E000A4FC232CB4FC231504FE231704FE231672
:1050F00004FE8327C4FD83D70702C207C183F99B3F
:105100001397070141838327C4FD2390E702832778
:10511000C4FD83D707022317F4FE8327C4FD83D77A
:1051200047002316F4FE8327C4FD83D78701231588
:10513000F4FE8357A4FE93F7F7F82315F4FE835784
:10514000A4FEF19B2315F4FE832784FD03D70700FB
:105150008357A4FED98F2315F4FE8357E4FEF59BF5
:105160002317F4FE832784FD03D787008357E4FECB
:10517000D98F2317F4FE832784FD03D72700835795
:10518000E4FED98F2317F4FE0327C4FDB73701408F
:10519000938707C06308F7020327C4FDB7370140B0
:1051A000938707406300F7020327C4FDB757014008
:1051B000938707C06308F7000327C4FDB757014072
:1051C000631CF7068357E4FEDD9B2317F4FE832759
:1051D00084FD03D7A7008357E4FED98F2317F4FE7D
:1051E0008357E4FEED9B2317F4FE832784FD03D74A
:1051F00047008357E4FED98F2317F4FE8357C4FE7C
:1052000093F7F7EF2316F4FE8357C4FE93F7F7DF07
:105210002316F4FE832784FD03D7C7008357C4FEFB
:10522000D98F2316F4FE832784FD03D7E700835725
:10523000C4FED98F2316F4FE8327C4FD0357C4FE92
:105240002392E7008327C4FD0357A4FE239CE700B5
:10525000832784FD03D767008327C4FD239AE702D1
:105260008327C4FD0357E4FE2390E7020100325474
:1052700045618280797122D60018232EA4FC232C4C
:10528000B4FC231504FE231704FE231604FE832713
:10529000C4FD83D70702C207C183BD9B13970701D3
:1052A00041838327C4FD2390E7028327C4FD83D76E
:1052B00007022317F4FE8327C4FD83D74700231674
:1052C000F4FE8327C4FD83D787012315F4FE03571B
:1052D000A4FEE577FD17F98F2315F4FE8357A4FE8E
:1052E00093F7F7CF2315F4FE832784FD83D70700B8
:1052F000A2071397070141838357A4FED98F231573
:10530000F4FE8357E4FE93F7F7FD2317F4FE83279B
:1053100084FD83D787009207139707014183835742
:10532000E4FED98F2317F4FE832784FD83D727005B
:1053300092071397070141838357E4FED98F231700
:10534000F4FE0327C4FDB7370140938707C0630805
:10535000F7020327C4FDB737014093870740630076
:10536000F7020327C4FDB7570140938707C06308BE
:10537000F7000327C4FDB75701406310F70A8357AE
:10538000E4FE93F7F7F72317F4FE832784FD83D712
:10539000A70092071397070141838357E4FED98F33
:1053A0002317F4FE8357E4FE93F7F7FB2317F4FE6D
:1053B000832784FD83D74700920713970701418312
:1053C0008357E4FED98F2317F4FE8357C4FE93F767
:1053D000F7BF2316F4FE0357C4FEFD779387F77FCC
:1053E000F98F2316F4FE832784FD83D7C7008A072D
:1053F0001397070141838357C4FED98F2316F4FE08
:10540000832784FD83D7E7008A0713970701418329
:105410008357C4FED98F2316F4FE8327C4FD035798
:10542000C4FE2392E7008327C4FD0357A4FE239CF8
:10543000E700832784FD03D767008327C4FD239CEF
:10544000E7028327C4FD0357E4FE2390E70201002F
:10545000325445618280797122D60018232EA4FC33
:10546000232CB4FC231504FE231704FE231604FE8C
:105470008327C4FD83D70702C207C18393F7F7EFE1
:105480001397070141838327C4FD2390E7028327F5
:10549000C4FD83D707022317F4FE8327C4FD83D7F7
:1054A00047002316F4FE8327C4FD83D7C7012315C5
:1054B000F4FE8357A4FE93F7F7F82315F4FE835701
:1054C000A4FEF19B2315F4FE832784FD03D7070078
:1054D0008357A4FED98F2315F4FE8357E4FE93F778
:1054E000F7DF2317F4FE832784FD83D78700A20705
:1054F0001397070141838357E4FED98F2317F4FEE6
:10550000832784FD83D72700A207139707014183D0
:105510008357E4FED98F2317F4FE0327C4FDB73762
:105520000140938707C06308F7020327C4FDB7371C
:105530000140938707406300F7020327C4FDB75774
:105540000140938707C06308F7000327C4FDB757DE
:1055500001406312F70A0357E4FEFD779387F77F54
:10556000F98F2317F4FE832784FD83D7A700A207B2
:105570001397070141838357E4FED98F2317F4FE65
:105580008357E4FE93F7F7BF2317F4FE832784FDC8
:1055900083D74700A2071397070141838357E4FE8F
:1055A000D98F2317F4FE0357C4FEFD77FD17F98F3B
:1055B0002316F4FE0357C4FEF977FD17F98F23165F
:1055C000F4FE832784FD83D7C70092071397070152
:1055D00041838357C4FED98F2316F4FE832784FDAD
:1055E00083D7E70092071397070141838357C4FECF
:1055F000D98F2316F4FE8327C4FD0357C4FE2392DC
:10560000E7008327C4FD0357A4FE239EE7008327FA
:1056100084FD03D767008327C4FD239EE702832709
:10562000C4FD0357E4FE2390E702010032544561B4
:105630008280797122D60018232EA4FC232CB4FC7E
:10564000231604FE231504FE231704FE8327C4FD3E
:1056500083D70702139707014183FD77FD17F98F61
:105660001397070141838327C4FD2390E702832713
:10567000C4FD83D707022315F4FE8327C4FD83D717
:1056800047002317F4FE8327C4FD83D7C7012316E1
:10569000F4FE0357C4FEE577FD17F98F2316F4FED9
:1056A0008357C4FE93F7F7CF2316F4FE832784FDB8
:1056B00083D70700A2071397070141838357C4FECE
:1056C000D98F2316F4FE0357A4FEF977FD17F98F3F
:1056D0002315F4FE832784FD83D78700B207139731
:1056E000070141838357A4FED98F2315F4FE832736
:1056F00084FD83D72700B20713970701418383579F
:10570000A4FED98F2315F4FE0327C4FDB73701404B
:10571000938707C06308F7020327C4FDB73701402A
:10572000938707406300F7020327C4FDB757014082
:10573000938707C06308F7000327C4FDB7570140EC
:105740006316F7020357E4FEF177FD17F98F23176D
:10575000F4FE832784FD83D7C7009A0713970701B8
:1057600041838357E4FED98F2317F4FE8327C4FDBA
:105770000357E4FE2392E7008327C4FD0357C4FECA
:10578000239EE700832784FD03D767008327C4FD9A
:105790002390E7048327C4FD0357A4FE2390E70268
:1057A0000100325445618280011122CE001023266F
:1057B000A4FE8327C4FE7D572392E7008327C4FEFF
:1057C000239007008327C4FE239307008327C4FE8A
:1057D000239107008327C4FE23840700010072443D
:1057E00005618280011122CE00102326A4FE23240D
:1057F000B4FE832784FE8DC38327C4FE83D70700AE
:10580000C207C18393E717001397070141838327DA
:10581000C4FE2390E70039A88327C4FE83D707007E
:10582000C207C183F99B1397070141838327C4FEF5
:105830002390E7000100724405618280011122CEAD
:1058400000102326A4FE2324B4FE832784FE95C3E0
:105850008327C4FE83D74704139707014183E17769
:10586000D98F1397070141838327C4FE2392E7044E
:1058700015A08327C4FE83D74704139707014183EC
:10588000A167FD17F98F1397070141838327C4FE92
:105890002392E7040100724405618280011122CE47
:1058A00000102326A4FEAE872322C4FE2315F4FE97
:1058B000832744FE9DC38327C4FE83D7C700139765
:1058C000070141838357A4FED98F139707014183B2
:1058D0008327C4FE2396E70035A08327C4FE83D721
:1058E000C7001397070141838357A4FE93C7F7FFAF
:1058F000C207C183F98F1397070141838327C4FE31
:105900002396E7000100724405618280797122D6F6
:105910000018232EA4FCAE873687231DF4FCB28723
:10592000231CF4FCBA87231BF4FC231704FE231664
:1059300004FE231504FE8327C4FD83D787002317A5
:10594000F4FE8327C4FD83D787012316F4FE832743
:10595000C4FD83D707022315F4FE8357E4FEE19BC1
:105960002317F4FE0357E4FE8357A4FDD98F2317B2
:10597000F4FE8357C4FE93F7C7CF2316F4FE835774
:10598000C4FE93E717102316F4FE8357A4FE93F783
:10599000D7FD2315F4FE835764FD92071397070183
:1059A0004183835784FDD98F139707014183835720
:1059B000A4FED98F2315F4FE8327C4FD0357E4FE0C
:1059C0002394E7008327C4FD0357C4FE239CE7000C
:1059D0008327C4FD0357A4FE2390E702010032543D
:1059E00045618280797122D60018232EA4FCAE87EF
:1059F000231DF4FC231704FE8327C4FD83D78701EE
:105A00002317F4FE8357E4FEDD9B2317F4FE0357B0
:105A1000E4FE8357A4FDD98F2317F4FE8327C4FD2A
:105A20000357E4FE239CE700010032544561828065
:105A3000797122D60018232EA4FCAE87231DF4FC16
:105A4000231704FE8327C4FD83D787012317F4FEA1
:105A50000357E4FEFD779387F77FF98F2317F4FE52
:105A60008357A4FDA2071397070141838357E4FEE0
:105A7000D98F2317F4FE8327C4FD0357E4FE239C2C
:105A8000E7000100325445618280797122D6001806
:105A9000232EA4FCAE87231DF4FC231704FE8327CA
:105AA000C4FD83D7C7012317F4FE8357E4FEDD9BB3
:105AB0002317F4FE0357E4FE8357A4FDD98F231761
:105AC000F4FE8327C4FD0357E4FE239EE700010094
:105AD000325445618280797122D60018232EA4FCAD
